{
	"project-02/contracts/contract.sol": {
		"DecentralizedBlog": {
			"abi": [
				{
					"anonymous": false,
					"inputs": [
						{
							"indexed": true,
							"internalType": "uint256",
							"name": "postId",
							"type": "uint256"
						},
						{
							"indexed": true,
							"internalType": "address",
							"name": "author",
							"type": "address"
						},
						{
							"indexed": false,
							"internalType": "string",
							"name": "title",
							"type": "string"
						},
						{
							"indexed": false,
							"internalType": "uint256",
							"name": "timestamp",
							"type": "uint256"
						}
					],
					"name": "PostCreated",
					"type": "event"
				},
				{
					"anonymous": false,
					"inputs": [
						{
							"indexed": true,
							"internalType": "uint256",
							"name": "postId",
							"type": "uint256"
						},
						{
							"indexed": true,
							"internalType": "address",
							"name": "liker",
							"type": "address"
						}
					],
					"name": "PostLiked",
					"type": "event"
				},
				{
					"inputs": [
						{
							"internalType": "string",
							"name": "_title",
							"type": "string"
						},
						{
							"internalType": "string",
							"name": "_content",
							"type": "string"
						}
					],
					"name": "createPost",
					"outputs": [],
					"stateMutability": "nonpayable",
					"type": "function"
				},
				{
					"inputs": [],
					"name": "getAllPosts",
					"outputs": [
						{
							"components": [
								{
									"internalType": "address",
									"name": "author",
									"type": "address"
								},
								{
									"internalType": "string",
									"name": "title",
									"type": "string"
								},
								{
									"internalType": "string",
									"name": "content",
									"type": "string"
								},
								{
									"internalType": "uint256",
									"name": "timestamp",
									"type": "uint256"
								},
								{
									"internalType": "uint256",
									"name": "likes",
									"type": "uint256"
								}
							],
							"internalType": "struct DecentralizedBlog.Post[]",
							"name": "",
							"type": "tuple[]"
						}
					],
					"stateMutability": "view",
					"type": "function"
				},
				{
					"inputs": [
						{
							"internalType": "uint256",
							"name": "_postId",
							"type": "uint256"
						}
					],
					"name": "likePost",
					"outputs": [],
					"stateMutability": "nonpayable",
					"type": "function"
				},
				{
					"inputs": [
						{
							"internalType": "uint256",
							"name": "",
							"type": "uint256"
						},
						{
							"internalType": "address",
							"name": "",
							"type": "address"
						}
					],
					"name": "postLikes",
					"outputs": [
						{
							"internalType": "bool",
							"name": "",
							"type": "bool"
						}
					],
					"stateMutability": "view",
					"type": "function"
				},
				{
					"inputs": [
						{
							"internalType": "uint256",
							"name": "",
							"type": "uint256"
						}
					],
					"name": "posts",
					"outputs": [
						{
							"internalType": "address",
							"name": "author",
							"type": "address"
						},
						{
							"internalType": "string",
							"name": "title",
							"type": "string"
						},
						{
							"internalType": "string",
							"name": "content",
							"type": "string"
						},
						{
							"internalType": "uint256",
							"name": "timestamp",
							"type": "uint256"
						},
						{
							"internalType": "uint256",
							"name": "likes",
							"type": "uint256"
						}
					],
					"stateMutability": "view",
					"type": "function"
				}
			],
			"devdoc": {
				"kind": "dev",
				"methods": {},
				"version": 1
			},
			"evm": {
				"assembly": "    /* \"project-02/contracts/contract.sol\":57:2290  contract DecentralizedBlog {... */\n  mstore(0x40, 0x80)\n  callvalue\n  dup1\n  iszero\n  tag_1\n  jumpi\n  0x00\n  dup1\n  revert\ntag_1:\n  pop\n  dataSize(sub_0)\n  dup1\n  dataOffset(sub_0)\n  0x00\n  codecopy\n  0x00\n  return\nstop\n\nsub_0: assembly {\n        /* \"project-02/contracts/contract.sol\":57:2290  contract DecentralizedBlog {... */\n      mstore(0x40, 0x80)\n      callvalue\n      dup1\n      iszero\n      tag_1\n      jumpi\n      0x00\n      dup1\n      revert\n    tag_1:\n      pop\n      jumpi(tag_2, lt(calldatasize, 0x04))\n      shr(0xe0, calldataload(0x00))\n      dup1\n      0x0b1e7f83\n      eq\n      tag_3\n      jumpi\n      dup1\n      0x30561100\n      eq\n      tag_4\n      jumpi\n      dup1\n      0x392338f5\n      eq\n      tag_5\n      jumpi\n      dup1\n      0x725009d3\n      eq\n      tag_6\n      jumpi\n      dup1\n      0xca1f0cad\n      eq\n      tag_7\n      jumpi\n    tag_2:\n      0x00\n      dup1\n      revert\n        /* \"project-02/contracts/contract.sol\":311:330  Post[] public posts */\n    tag_3:\n      tag_8\n      0x04\n      dup1\n      calldatasize\n      sub\n      dup2\n      add\n      swap1\n      tag_9\n      swap2\n      swap1\n      tag_10\n      jump\t// in\n    tag_9:\n      tag_11\n      jump\t// in\n    tag_8:\n      mload(0x40)\n      tag_12\n      swap6\n      swap5\n      swap4\n      swap3\n      swap2\n      swap1\n      tag_13\n      jump\t// in\n    tag_12:\n      mload(0x40)\n      dup1\n      swap2\n      sub\n      swap1\n      return\n        /* \"project-02/contracts/contract.sol\":2200:2288  function getAllPosts() public view returns (Post[] memory) {... */\n    tag_4:\n      tag_14\n      tag_15\n      jump\t// in\n    tag_14:\n      mload(0x40)\n      tag_16\n      swap2\n      swap1\n      tag_17\n      jump\t// in\n    tag_16:\n      mload(0x40)\n      dup1\n      swap2\n      sub\n      swap1\n      return\n        /* \"project-02/contracts/contract.sol\":827:1562  function createPost(string memory _title, string memory _content) public {... */\n    tag_5:\n      tag_18\n      0x04\n      dup1\n      calldatasize\n      sub\n      dup2\n      add\n      swap1\n      tag_19\n      swap2\n      swap1\n      tag_20\n      jump\t// in\n    tag_19:\n      tag_21\n      jump\t// in\n    tag_18:\n      stop\n        /* \"project-02/contracts/contract.sol\":1604:2140  function likePost(uint256 _postId) public {... */\n    tag_6:\n      tag_22\n      0x04\n      dup1\n      calldatasize\n      sub\n      dup2\n      add\n      swap1\n      tag_23\n      swap2\n      swap1\n      tag_10\n      jump\t// in\n    tag_23:\n      tag_24\n      jump\t// in\n    tag_22:\n      stop\n        /* \"project-02/contracts/contract.sol\":391:452  mapping(uint256 => mapping(address => bool)) public postLikes */\n    tag_7:\n      tag_25\n      0x04\n      dup1\n      calldatasize\n      sub\n      dup2\n      add\n      swap1\n      tag_26\n      swap2\n      swap1\n      tag_27\n      jump\t// in\n    tag_26:\n      tag_28\n      jump\t// in\n    tag_25:\n      mload(0x40)\n      tag_29\n      swap2\n      swap1\n      tag_30\n      jump\t// in\n    tag_29:\n      mload(0x40)\n      dup1\n      swap2\n      sub\n      swap1\n      return\n        /* \"project-02/contracts/contract.sol\":311:330  Post[] public posts */\n    tag_11:\n      0x00\n      dup2\n      dup2\n      sload\n      dup2\n      lt\n      tag_31\n      jumpi\n      0x00\n      dup1\n      revert\n    tag_31:\n      swap1\n      0x00\n      mstore\n      keccak256(0x00, 0x20)\n      swap1\n      0x05\n      mul\n      add\n      0x00\n      swap2\n      pop\n      swap1\n      pop\n      dup1\n      0x00\n      add\n      0x00\n      swap1\n      sload\n      swap1\n      0x0100\n      exp\n      swap1\n      div\n      0xffffffffffffffffffffffffffffffffffffffff\n      and\n      swap1\n      dup1\n      0x01\n      add\n      dup1\n      sload\n      tag_33\n      swap1\n      tag_34\n      jump\t// in\n    tag_33:\n      dup1\n      0x1f\n      add\n      0x20\n      dup1\n      swap2\n      div\n      mul\n      0x20\n      add\n      mload(0x40)\n      swap1\n      dup2\n      add\n      0x40\n      mstore\n      dup1\n      swap3\n      swap2\n      swap1\n      dup2\n      dup2\n      mstore\n      0x20\n      add\n      dup3\n      dup1\n      sload\n      tag_35\n      swap1\n      tag_34\n      jump\t// in\n    tag_35:\n      dup1\n      iszero\n      tag_36\n      jumpi\n      dup1\n      0x1f\n      lt\n      tag_37\n      jumpi\n      0x0100\n      dup1\n      dup4\n      sload\n      div\n      mul\n      dup4\n      mstore\n      swap2\n      0x20\n      add\n      swap2\n      jump(tag_36)\n    tag_37:\n      dup3\n      add\n      swap2\n      swap1\n      0x00\n      mstore\n      keccak256(0x00, 0x20)\n      swap1\n    tag_38:\n      dup2\n      sload\n      dup2\n      mstore\n      swap1\n      0x01\n      add\n      swap1\n      0x20\n      add\n      dup1\n      dup4\n      gt\n      tag_38\n      jumpi\n      dup3\n      swap1\n      sub\n      0x1f\n      and\n      dup3\n      add\n      swap2\n    tag_36:\n      pop\n      pop\n      pop\n      pop\n      pop\n      swap1\n      dup1\n      0x02\n      add\n      dup1\n      sload\n      tag_39\n      swap1\n      tag_34\n      jump\t// in\n    tag_39:\n      dup1\n      0x1f\n      add\n      0x20\n      dup1\n      swap2\n      div\n      mul\n      0x20\n      add\n      mload(0x40)\n      swap1\n      dup2\n      add\n      0x40\n      mstore\n      dup1\n      swap3\n      swap2\n      swap1\n      dup2\n      dup2\n      mstore\n      0x20\n      add\n      dup3\n      dup1\n      sload\n      tag_40\n      swap1\n      tag_34\n      jump\t// in\n    tag_40:\n      dup1\n      iszero\n      tag_41\n      jumpi\n      dup1\n      0x1f\n      lt\n      tag_42\n      jumpi\n      0x0100\n      dup1\n      dup4\n      sload\n      div\n      mul\n      dup4\n      mstore\n      swap2\n      0x20\n      add\n      swap2\n      jump(tag_41)\n    tag_42:\n      dup3\n      add\n      swap2\n      swap1\n      0x00\n      mstore\n      keccak256(0x00, 0x20)\n      swap1\n    tag_43:\n      dup2\n      sload\n      dup2\n      mstore\n      swap1\n      0x01\n      add\n      swap1\n      0x20\n      add\n      dup1\n      dup4\n      gt\n      tag_43\n      jumpi\n      dup3\n      swap1\n      sub\n      0x1f\n      and\n      dup3\n      add\n      swap2\n    tag_41:\n      pop\n      pop\n      pop\n      pop\n      pop\n      swap1\n      dup1\n      0x03\n      add\n      sload\n      swap1\n      dup1\n      0x04\n      add\n      sload\n      swap1\n      pop\n      dup6\n      jump\t// out\n        /* \"project-02/contracts/contract.sol\":2200:2288  function getAllPosts() public view returns (Post[] memory) {... */\n    tag_15:\n        /* \"project-02/contracts/contract.sol\":2244:2257  Post[] memory */\n      0x60\n        /* \"project-02/contracts/contract.sol\":2276:2281  posts */\n      0x00\n        /* \"project-02/contracts/contract.sol\":2269:2281  return posts */\n      dup1\n      sload\n      dup1\n      0x20\n      mul\n      0x20\n      add\n      mload(0x40)\n      swap1\n      dup2\n      add\n      0x40\n      mstore\n      dup1\n      swap3\n      swap2\n      swap1\n      dup2\n      dup2\n      mstore\n      0x20\n      add\n      0x00\n      swap1\n    tag_45:\n      dup3\n      dup3\n      lt\n      iszero\n      tag_46\n      jumpi\n      dup4\n      dup3\n      swap1\n      0x00\n      mstore\n      keccak256(0x00, 0x20)\n      swap1\n      0x05\n      mul\n      add\n      mload(0x40)\n      dup1\n      0xa0\n      add\n      0x40\n      mstore\n      swap1\n      dup2\n      0x00\n      dup3\n      add\n      0x00\n      swap1\n      sload\n      swap1\n      0x0100\n      exp\n      swap1\n      div\n      0xffffffffffffffffffffffffffffffffffffffff\n      and\n      0xffffffffffffffffffffffffffffffffffffffff\n      and\n      0xffffffffffffffffffffffffffffffffffffffff\n      and\n      dup2\n      mstore\n      0x20\n      add\n      0x01\n      dup3\n      add\n      dup1\n      sload\n      tag_48\n      swap1\n      tag_34\n      jump\t// in\n    tag_48:\n      dup1\n      0x1f\n      add\n      0x20\n      dup1\n      swap2\n      div\n      mul\n      0x20\n      add\n      mload(0x40)\n      swap1\n      dup2\n      add\n      0x40\n      mstore\n      dup1\n      swap3\n      swap2\n      swap1\n      dup2\n      dup2\n      mstore\n      0x20\n      add\n      dup3\n      dup1\n      sload\n      tag_49\n      swap1\n      tag_34\n      jump\t// in\n    tag_49:\n      dup1\n      iszero\n      tag_50\n      jumpi\n      dup1\n      0x1f\n      lt\n      tag_51\n      jumpi\n      0x0100\n      dup1\n      dup4\n      sload\n      div\n      mul\n      dup4\n      mstore\n      swap2\n      0x20\n      add\n      swap2\n      jump(tag_50)\n    tag_51:\n      dup3\n      add\n      swap2\n      swap1\n      0x00\n      mstore\n      keccak256(0x00, 0x20)\n      swap1\n    tag_52:\n      dup2\n      sload\n      dup2\n      mstore\n      swap1\n      0x01\n      add\n      swap1\n      0x20\n      add\n      dup1\n      dup4\n      gt\n      tag_52\n      jumpi\n      dup3\n      swap1\n      sub\n      0x1f\n      and\n      dup3\n      add\n      swap2\n    tag_50:\n      pop\n      pop\n      pop\n      pop\n      pop\n      dup2\n      mstore\n      0x20\n      add\n      0x02\n      dup3\n      add\n      dup1\n      sload\n      tag_53\n      swap1\n      tag_34\n      jump\t// in\n    tag_53:\n      dup1\n      0x1f\n      add\n      0x20\n      dup1\n      swap2\n      div\n      mul\n      0x20\n      add\n      mload(0x40)\n      swap1\n      dup2\n      add\n      0x40\n      mstore\n      dup1\n      swap3\n      swap2\n      swap1\n      dup2\n      dup2\n      mstore\n      0x20\n      add\n      dup3\n      dup1\n      sload\n      tag_54\n      swap1\n      tag_34\n      jump\t// in\n    tag_54:\n      dup1\n      iszero\n      tag_55\n      jumpi\n      dup1\n      0x1f\n      lt\n      tag_56\n      jumpi\n      0x0100\n      dup1\n      dup4\n      sload\n      div\n      mul\n      dup4\n      mstore\n      swap2\n      0x20\n      add\n      swap2\n      jump(tag_55)\n    tag_56:\n      dup3\n      add\n      swap2\n      swap1\n      0x00\n      mstore\n      keccak256(0x00, 0x20)\n      swap1\n    tag_57:\n      dup2\n      sload\n      dup2\n      mstore\n      swap1\n      0x01\n      add\n      swap1\n      0x20\n      add\n      dup1\n      dup4\n      gt\n      tag_57\n      jumpi\n      dup3\n      swap1\n      sub\n      0x1f\n      and\n      dup3\n      add\n      swap2\n    tag_55:\n      pop\n      pop\n      pop\n      pop\n      pop\n      dup2\n      mstore\n      0x20\n      add\n      0x03\n      dup3\n      add\n      sload\n      dup2\n      mstore\n      0x20\n      add\n      0x04\n      dup3\n      add\n      sload\n      dup2\n      mstore\n      pop\n      pop\n      dup2\n      mstore\n      0x20\n      add\n      swap1\n      0x01\n      add\n      swap1\n      jump(tag_45)\n    tag_46:\n      pop\n      pop\n      pop\n      pop\n      swap1\n      pop\n        /* \"project-02/contracts/contract.sol\":2200:2288  function getAllPosts() public view returns (Post[] memory) {... */\n      swap1\n      jump\t// out\n        /* \"project-02/contracts/contract.sol\":827:1562  function createPost(string memory _title, string memory _content) public {... */\n    tag_21:\n        /* \"project-02/contracts/contract.sol\":991:992  0 */\n      0x00\n        /* \"project-02/contracts/contract.sol\":974:980  _title */\n      dup3\n        /* \"project-02/contracts/contract.sol\":968:988  bytes(_title).length */\n      mload\n        /* \"project-02/contracts/contract.sol\":968:992  bytes(_title).length > 0 */\n      gt\n        /* \"project-02/contracts/contract.sol\":960:1018  require(bytes(_title).length > 0, \"Title cannot be empty\") */\n      tag_59\n      jumpi\n      mload(0x40)\n      0x08c379a000000000000000000000000000000000000000000000000000000000\n      dup2\n      mstore\n      0x04\n      add\n      tag_60\n      swap1\n      tag_61\n      jump\t// in\n    tag_60:\n      mload(0x40)\n      dup1\n      swap2\n      sub\n      swap1\n      revert\n    tag_59:\n        /* \"project-02/contracts/contract.sol\":1061:1062  0 */\n      0x00\n        /* \"project-02/contracts/contract.sol\":1042:1050  _content */\n      dup2\n        /* \"project-02/contracts/contract.sol\":1036:1058  bytes(_content).length */\n      mload\n        /* \"project-02/contracts/contract.sol\":1036:1062  bytes(_content).length > 0 */\n      gt\n        /* \"project-02/contracts/contract.sol\":1028:1090  require(bytes(_content).length > 0, \"Content cannot be empty\") */\n      tag_62\n      jumpi\n      mload(0x40)\n      0x08c379a000000000000000000000000000000000000000000000000000000000\n      dup2\n      mstore\n      0x04\n      add\n      tag_63\n      swap1\n      tag_64\n      jump\t// in\n    tag_63:\n      mload(0x40)\n      dup1\n      swap2\n      sub\n      swap1\n      revert\n    tag_62:\n        /* \"project-02/contracts/contract.sol\":1130:1149  Post memory newPost */\n      0x00\n        /* \"project-02/contracts/contract.sol\":1152:1320  Post({... */\n      mload(0x40)\n      dup1\n      0xa0\n      add\n      0x40\n      mstore\n      dup1\n        /* \"project-02/contracts/contract.sol\":1179:1189  msg.sender */\n      caller\n        /* \"project-02/contracts/contract.sol\":1152:1320  Post({... */\n      0xffffffffffffffffffffffffffffffffffffffff\n      and\n      dup2\n      mstore\n      0x20\n      add\n        /* \"project-02/contracts/contract.sol\":1210:1216  _title */\n      dup5\n        /* \"project-02/contracts/contract.sol\":1152:1320  Post({... */\n      dup2\n      mstore\n      0x20\n      add\n        /* \"project-02/contracts/contract.sol\":1239:1247  _content */\n      dup4\n        /* \"project-02/contracts/contract.sol\":1152:1320  Post({... */\n      dup2\n      mstore\n      0x20\n      add\n        /* \"project-02/contracts/contract.sol\":1272:1287  block.timestamp */\n      timestamp\n        /* \"project-02/contracts/contract.sol\":1152:1320  Post({... */\n      dup2\n      mstore\n      0x20\n      add\n        /* \"project-02/contracts/contract.sol\":1308:1309  0 */\n      0x00\n        /* \"project-02/contracts/contract.sol\":1152:1320  Post({... */\n      dup2\n      mstore\n      pop\n        /* \"project-02/contracts/contract.sol\":1130:1320  Post memory newPost = Post({... */\n      swap1\n      pop\n        /* \"project-02/contracts/contract.sol\":1385:1399  uint256 postId */\n      0x00\n        /* \"project-02/contracts/contract.sol\":1402:1407  posts */\n      dup1\n        /* \"project-02/contracts/contract.sol\":1402:1414  posts.length */\n      dup1\n      sload\n      swap1\n      pop\n        /* \"project-02/contracts/contract.sol\":1385:1414  uint256 postId = posts.length */\n      swap1\n      pop\n        /* \"project-02/contracts/contract.sol\":1424:1429  posts */\n      0x00\n        /* \"project-02/contracts/contract.sol\":1435:1442  newPost */\n      dup3\n        /* \"project-02/contracts/contract.sol\":1424:1443  posts.push(newPost) */\n      swap1\n      dup1\n      0x01\n      dup2\n      sload\n      add\n      dup1\n      dup3\n      sstore\n      dup1\n      swap2\n      pop\n      pop\n      0x01\n      swap1\n      sub\n      swap1\n      0x00\n      mstore\n      keccak256(0x00, 0x20)\n      swap1\n      0x05\n      mul\n      add\n      0x00\n      swap1\n      swap2\n      swap1\n      swap2\n      swap1\n      swap2\n      pop\n      0x00\n      dup3\n      add\n      mload\n      dup2\n      0x00\n      add\n      exp(0x0100, 0x00)\n      dup2\n      sload\n      dup2\n      0xffffffffffffffffffffffffffffffffffffffff\n      mul\n      not\n      and\n      swap1\n      dup4\n      0xffffffffffffffffffffffffffffffffffffffff\n      and\n      mul\n      or\n      swap1\n      sstore\n      pop\n      0x20\n      dup3\n      add\n      mload\n      dup2\n      0x01\n      add\n      swap1\n      dup2\n      tag_66\n      swap2\n      swap1\n      tag_67\n      jump\t// in\n    tag_66:\n      pop\n      0x40\n      dup3\n      add\n      mload\n      dup2\n      0x02\n      add\n      swap1\n      dup2\n      tag_68\n      swap2\n      swap1\n      tag_67\n      jump\t// in\n    tag_68:\n      pop\n      0x60\n      dup3\n      add\n      mload\n      dup2\n      0x03\n      add\n      sstore\n      0x80\n      dup3\n      add\n      mload\n      dup2\n      0x04\n      add\n      sstore\n      pop\n      pop\n        /* \"project-02/contracts/contract.sol\":1519:1529  msg.sender */\n      caller\n        /* \"project-02/contracts/contract.sol\":1499:1555  PostCreated(postId, msg.sender, _title, block.timestamp) */\n      0xffffffffffffffffffffffffffffffffffffffff\n      and\n        /* \"project-02/contracts/contract.sol\":1511:1517  postId */\n      dup2\n        /* \"project-02/contracts/contract.sol\":1499:1555  PostCreated(postId, msg.sender, _title, block.timestamp) */\n      0x285db98a4632176385795ddf0d2b67cef1a21f47eb2f5d06f786ab6b5147e200\n        /* \"project-02/contracts/contract.sol\":1531:1537  _title */\n      dup7\n        /* \"project-02/contracts/contract.sol\":1539:1554  block.timestamp */\n      timestamp\n        /* \"project-02/contracts/contract.sol\":1499:1555  PostCreated(postId, msg.sender, _title, block.timestamp) */\n      mload(0x40)\n      tag_69\n      swap3\n      swap2\n      swap1\n      tag_70\n      jump\t// in\n    tag_69:\n      mload(0x40)\n      dup1\n      swap2\n      sub\n      swap1\n      log3\n        /* \"project-02/contracts/contract.sol\":900:1562  {... */\n      pop\n      pop\n        /* \"project-02/contracts/contract.sol\":827:1562  function createPost(string memory _title, string memory _content) public {... */\n      pop\n      pop\n      jump\t// out\n        /* \"project-02/contracts/contract.sol\":1604:2140  function likePost(uint256 _postId) public {... */\n    tag_24:\n        /* \"project-02/contracts/contract.sol\":1709:1714  posts */\n      0x00\n        /* \"project-02/contracts/contract.sol\":1709:1721  posts.length */\n      dup1\n      sload\n      swap1\n      pop\n        /* \"project-02/contracts/contract.sol\":1699:1706  _postId */\n      dup2\n        /* \"project-02/contracts/contract.sol\":1699:1721  _postId < posts.length */\n      lt\n        /* \"project-02/contracts/contract.sol\":1691:1741  require(_postId < posts.length, \"Invalid post ID\") */\n      tag_72\n      jumpi\n      mload(0x40)\n      0x08c379a000000000000000000000000000000000000000000000000000000000\n      dup2\n      mstore\n      0x04\n      add\n      tag_73\n      swap1\n      tag_74\n      jump\t// in\n    tag_73:\n      mload(0x40)\n      dup1\n      swap2\n      sub\n      swap1\n      revert\n    tag_72:\n        /* \"project-02/contracts/contract.sol\":1817:1826  postLikes */\n      0x01\n        /* \"project-02/contracts/contract.sol\":1817:1835  postLikes[_postId] */\n      0x00\n        /* \"project-02/contracts/contract.sol\":1827:1834  _postId */\n      dup3\n        /* \"project-02/contracts/contract.sol\":1817:1835  postLikes[_postId] */\n      dup2\n      mstore\n      0x20\n      add\n      swap1\n      dup2\n      mstore\n      0x20\n      add\n      0x00\n      keccak256\n        /* \"project-02/contracts/contract.sol\":1817:1847  postLikes[_postId][msg.sender] */\n      0x00\n        /* \"project-02/contracts/contract.sol\":1836:1846  msg.sender */\n      caller\n        /* \"project-02/contracts/contract.sol\":1817:1847  postLikes[_postId][msg.sender] */\n      0xffffffffffffffffffffffffffffffffffffffff\n      and\n      0xffffffffffffffffffffffffffffffffffffffff\n      and\n      dup2\n      mstore\n      0x20\n      add\n      swap1\n      dup2\n      mstore\n      0x20\n      add\n      0x00\n      keccak256\n      0x00\n      swap1\n      sload\n      swap1\n      0x0100\n      exp\n      swap1\n      div\n      0xff\n      and\n        /* \"project-02/contracts/contract.sol\":1816:1847  !postLikes[_postId][msg.sender] */\n      iszero\n        /* \"project-02/contracts/contract.sol\":1808:1884  require(!postLikes[_postId][msg.sender], \"You have already liked this post\") */\n      tag_75\n      jumpi\n      mload(0x40)\n      0x08c379a000000000000000000000000000000000000000000000000000000000\n      dup2\n      mstore\n      0x04\n      add\n      tag_76\n      swap1\n      tag_77\n      jump\t// in\n    tag_76:\n      mload(0x40)\n      dup1\n      swap2\n      sub\n      swap1\n      revert\n    tag_75:\n        /* \"project-02/contracts/contract.sol\":1974:1978  true */\n      0x01\n        /* \"project-02/contracts/contract.sol\":1941:1950  postLikes */\n      dup1\n        /* \"project-02/contracts/contract.sol\":1941:1959  postLikes[_postId] */\n      0x00\n        /* \"project-02/contracts/contract.sol\":1951:1958  _postId */\n      dup4\n        /* \"project-02/contracts/contract.sol\":1941:1959  postLikes[_postId] */\n      dup2\n      mstore\n      0x20\n      add\n      swap1\n      dup2\n      mstore\n      0x20\n      add\n      0x00\n      keccak256\n        /* \"project-02/contracts/contract.sol\":1941:1971  postLikes[_postId][msg.sender] */\n      0x00\n        /* \"project-02/contracts/contract.sol\":1960:1970  msg.sender */\n      caller\n        /* \"project-02/contracts/contract.sol\":1941:1971  postLikes[_postId][msg.sender] */\n      0xffffffffffffffffffffffffffffffffffffffff\n      and\n      0xffffffffffffffffffffffffffffffffffffffff\n      and\n      dup2\n      mstore\n      0x20\n      add\n      swap1\n      dup2\n      mstore\n      0x20\n      add\n      0x00\n      keccak256\n      0x00\n        /* \"project-02/contracts/contract.sol\":1941:1978  postLikes[_postId][msg.sender] = true */\n      0x0100\n      exp\n      dup2\n      sload\n      dup2\n      0xff\n      mul\n      not\n      and\n      swap1\n      dup4\n      iszero\n      iszero\n      mul\n      or\n      swap1\n      sstore\n      pop\n        /* \"project-02/contracts/contract.sol\":2029:2034  posts */\n      0x00\n        /* \"project-02/contracts/contract.sol\":2035:2042  _postId */\n      dup2\n        /* \"project-02/contracts/contract.sol\":2029:2043  posts[_postId] */\n      dup2\n      sload\n      dup2\n      lt\n      tag_78\n      jumpi\n      tag_79\n      tag_80\n      jump\t// in\n    tag_79:\n    tag_78:\n      swap1\n      0x00\n      mstore\n      keccak256(0x00, 0x20)\n      swap1\n      0x05\n      mul\n      add\n        /* \"project-02/contracts/contract.sol\":2029:2049  posts[_postId].likes */\n      0x04\n      add\n      0x00\n        /* \"project-02/contracts/contract.sol\":2029:2051  posts[_postId].likes++ */\n      dup2\n      sload\n      dup1\n      swap3\n      swap2\n      swap1\n      tag_82\n      swap1\n      tag_83\n      jump\t// in\n    tag_82:\n      swap2\n      swap1\n      pop\n      sstore\n      pop\n        /* \"project-02/contracts/contract.sol\":2122:2132  msg.sender */\n      caller\n        /* \"project-02/contracts/contract.sol\":2103:2133  PostLiked(_postId, msg.sender) */\n      0xffffffffffffffffffffffffffffffffffffffff\n      and\n        /* \"project-02/contracts/contract.sol\":2113:2120  _postId */\n      dup2\n        /* \"project-02/contracts/contract.sol\":2103:2133  PostLiked(_postId, msg.sender) */\n      0xcf765d6f163c9b0d832e2a94f4c8e9bffd32a2c3ca5fdbb8cc67b5fe1441f413\n      mload(0x40)\n      mload(0x40)\n      dup1\n      swap2\n      sub\n      swap1\n      log3\n        /* \"project-02/contracts/contract.sol\":1604:2140  function likePost(uint256 _postId) public {... */\n      pop\n      jump\t// out\n        /* \"project-02/contracts/contract.sol\":391:452  mapping(uint256 => mapping(address => bool)) public postLikes */\n    tag_28:\n      mstore(0x20, 0x01)\n      dup2\n      0x00\n      mstore\n      mstore(0x20, keccak256(0x00, 0x40))\n      dup1\n      0x00\n      mstore\n      keccak256(0x00, 0x40)\n      0x00\n      swap2\n      pop\n      swap2\n      pop\n      swap1\n      sload\n      swap1\n      0x0100\n      exp\n      swap1\n      div\n      0xff\n      and\n      dup2\n      jump\t// out\n        /* \"#utility.yul\":7:82   */\n    tag_84:\n        /* \"#utility.yul\":40:46   */\n      0x00\n        /* \"#utility.yul\":73:75   */\n      0x40\n        /* \"#utility.yul\":67:76   */\n      mload\n        /* \"#utility.yul\":57:76   */\n      swap1\n      pop\n        /* \"#utility.yul\":7:82   */\n      swap1\n      jump\t// out\n        /* \"#utility.yul\":88:205   */\n    tag_85:\n        /* \"#utility.yul\":197:198   */\n      0x00\n        /* \"#utility.yul\":194:195   */\n      dup1\n        /* \"#utility.yul\":187:199   */\n      revert\n        /* \"#utility.yul\":211:328   */\n    tag_86:\n        /* \"#utility.yul\":320:321   */\n      0x00\n        /* \"#utility.yul\":317:318   */\n      dup1\n        /* \"#utility.yul\":310:322   */\n      revert\n        /* \"#utility.yul\":334:411   */\n    tag_87:\n        /* \"#utility.yul\":371:378   */\n      0x00\n        /* \"#utility.yul\":400:405   */\n      dup2\n        /* \"#utility.yul\":389:405   */\n      swap1\n      pop\n        /* \"#utility.yul\":334:411   */\n      swap2\n      swap1\n      pop\n      jump\t// out\n        /* \"#utility.yul\":417:539   */\n    tag_88:\n        /* \"#utility.yul\":490:514   */\n      tag_154\n        /* \"#utility.yul\":508:513   */\n      dup2\n        /* \"#utility.yul\":490:514   */\n      tag_87\n      jump\t// in\n    tag_154:\n        /* \"#utility.yul\":483:488   */\n      dup2\n        /* \"#utility.yul\":480:515   */\n      eq\n        /* \"#utility.yul\":470:533   */\n      tag_155\n      jumpi\n        /* \"#utility.yul\":529:530   */\n      0x00\n        /* \"#utility.yul\":526:527   */\n      dup1\n        /* \"#utility.yul\":519:531   */\n      revert\n        /* \"#utility.yul\":470:533   */\n    tag_155:\n        /* \"#utility.yul\":417:539   */\n      pop\n      jump\t// out\n        /* \"#utility.yul\":545:684   */\n    tag_89:\n        /* \"#utility.yul\":591:596   */\n      0x00\n        /* \"#utility.yul\":629:635   */\n      dup2\n        /* \"#utility.yul\":616:636   */\n      calldataload\n        /* \"#utility.yul\":607:636   */\n      swap1\n      pop\n        /* \"#utility.yul\":645:678   */\n      tag_157\n        /* \"#utility.yul\":672:677   */\n      dup2\n        /* \"#utility.yul\":645:678   */\n      tag_88\n      jump\t// in\n    tag_157:\n        /* \"#utility.yul\":545:684   */\n      swap3\n      swap2\n      pop\n      pop\n      jump\t// out\n        /* \"#utility.yul\":690:1019   */\n    tag_10:\n        /* \"#utility.yul\":749:755   */\n      0x00\n        /* \"#utility.yul\":798:800   */\n      0x20\n        /* \"#utility.yul\":786:795   */\n      dup3\n        /* \"#utility.yul\":777:784   */\n      dup5\n        /* \"#utility.yul\":773:796   */\n      sub\n        /* \"#utility.yul\":769:801   */\n      slt\n        /* \"#utility.yul\":766:885   */\n      iszero\n      tag_159\n      jumpi\n        /* \"#utility.yul\":804:883   */\n      tag_160\n      tag_85\n      jump\t// in\n    tag_160:\n        /* \"#utility.yul\":766:885   */\n    tag_159:\n        /* \"#utility.yul\":924:925   */\n      0x00\n        /* \"#utility.yul\":949:1002   */\n      tag_161\n        /* \"#utility.yul\":994:1001   */\n      dup5\n        /* \"#utility.yul\":985:991   */\n      dup3\n        /* \"#utility.yul\":974:983   */\n      dup6\n        /* \"#utility.yul\":970:992   */\n      add\n        /* \"#utility.yul\":949:1002   */\n      tag_89\n      jump\t// in\n    tag_161:\n        /* \"#utility.yul\":939:1002   */\n      swap2\n      pop\n        /* \"#utility.yul\":895:1012   */\n      pop\n        /* \"#utility.yul\":690:1019   */\n      swap3\n      swap2\n      pop\n      pop\n      jump\t// out\n        /* \"#utility.yul\":1025:1151   */\n    tag_90:\n        /* \"#utility.yul\":1062:1069   */\n      0x00\n        /* \"#utility.yul\":1102:1144   */\n      0xffffffffffffffffffffffffffffffffffffffff\n        /* \"#utility.yul\":1095:1100   */\n      dup3\n        /* \"#utility.yul\":1091:1145   */\n      and\n        /* \"#utility.yul\":1080:1145   */\n      swap1\n      pop\n        /* \"#utility.yul\":1025:1151   */\n      swap2\n      swap1\n      pop\n      jump\t// out\n        /* \"#utility.yul\":1157:1253   */\n    tag_91:\n        /* \"#utility.yul\":1194:1201   */\n      0x00\n        /* \"#utility.yul\":1223:1247   */\n      tag_164\n        /* \"#utility.yul\":1241:1246   */\n      dup3\n        /* \"#utility.yul\":1223:1247   */\n      tag_90\n      jump\t// in\n    tag_164:\n        /* \"#utility.yul\":1212:1247   */\n      swap1\n      pop\n        /* \"#utility.yul\":1157:1253   */\n      swap2\n      swap1\n      pop\n      jump\t// out\n        /* \"#utility.yul\":1259:1377   */\n    tag_92:\n        /* \"#utility.yul\":1346:1370   */\n      tag_166\n        /* \"#utility.yul\":1364:1369   */\n      dup2\n        /* \"#utility.yul\":1346:1370   */\n      tag_91\n      jump\t// in\n    tag_166:\n        /* \"#utility.yul\":1341:1344   */\n      dup3\n        /* \"#utility.yul\":1334:1371   */\n      mstore\n        /* \"#utility.yul\":1259:1377   */\n      pop\n      pop\n      jump\t// out\n        /* \"#utility.yul\":1383:1482   */\n    tag_93:\n        /* \"#utility.yul\":1435:1441   */\n      0x00\n        /* \"#utility.yul\":1469:1474   */\n      dup2\n        /* \"#utility.yul\":1463:1475   */\n      mload\n        /* \"#utility.yul\":1453:1475   */\n      swap1\n      pop\n        /* \"#utility.yul\":1383:1482   */\n      swap2\n      swap1\n      pop\n      jump\t// out\n        /* \"#utility.yul\":1488:1657   */\n    tag_94:\n        /* \"#utility.yul\":1572:1583   */\n      0x00\n        /* \"#utility.yul\":1606:1612   */\n      dup3\n        /* \"#utility.yul\":1601:1604   */\n      dup3\n        /* \"#utility.yul\":1594:1613   */\n      mstore\n        /* \"#utility.yul\":1646:1650   */\n      0x20\n        /* \"#utility.yul\":1641:1644   */\n      dup3\n        /* \"#utility.yul\":1637:1651   */\n      add\n        /* \"#utility.yul\":1622:1651   */\n      swap1\n      pop\n        /* \"#utility.yul\":1488:1657   */\n      swap3\n      swap2\n      pop\n      pop\n      jump\t// out\n        /* \"#utility.yul\":1663:1802   */\n    tag_95:\n        /* \"#utility.yul\":1752:1758   */\n      dup3\n        /* \"#utility.yul\":1747:1750   */\n      dup2\n        /* \"#utility.yul\":1742:1745   */\n      dup4\n        /* \"#utility.yul\":1736:1759   */\n      mcopy\n        /* \"#utility.yul\":1793:1794   */\n      0x00\n        /* \"#utility.yul\":1784:1790   */\n      dup4\n        /* \"#utility.yul\":1779:1782   */\n      dup4\n        /* \"#utility.yul\":1775:1791   */\n      add\n        /* \"#utility.yul\":1768:1795   */\n      mstore\n        /* \"#utility.yul\":1663:1802   */\n      pop\n      pop\n      pop\n      jump\t// out\n        /* \"#utility.yul\":1808:1910   */\n    tag_96:\n        /* \"#utility.yul\":1849:1855   */\n      0x00\n        /* \"#utility.yul\":1900:1902   */\n      0x1f\n        /* \"#utility.yul\":1896:1903   */\n      not\n        /* \"#utility.yul\":1891:1893   */\n      0x1f\n        /* \"#utility.yul\":1884:1889   */\n      dup4\n        /* \"#utility.yul\":1880:1894   */\n      add\n        /* \"#utility.yul\":1876:1904   */\n      and\n        /* \"#utility.yul\":1866:1904   */\n      swap1\n      pop\n        /* \"#utility.yul\":1808:1910   */\n      swap2\n      swap1\n      pop\n      jump\t// out\n        /* \"#utility.yul\":1916:2293   */\n    tag_97:\n        /* \"#utility.yul\":2004:2007   */\n      0x00\n        /* \"#utility.yul\":2032:2071   */\n      tag_172\n        /* \"#utility.yul\":2065:2070   */\n      dup3\n        /* \"#utility.yul\":2032:2071   */\n      tag_93\n      jump\t// in\n    tag_172:\n        /* \"#utility.yul\":2087:2158   */\n      tag_173\n        /* \"#utility.yul\":2151:2157   */\n      dup2\n        /* \"#utility.yul\":2146:2149   */\n      dup6\n        /* \"#utility.yul\":2087:2158   */\n      tag_94\n      jump\t// in\n    tag_173:\n        /* \"#utility.yul\":2080:2158   */\n      swap4\n      pop\n        /* \"#utility.yul\":2167:2232   */\n      tag_174\n        /* \"#utility.yul\":2225:2231   */\n      dup2\n        /* \"#utility.yul\":2220:2223   */\n      dup6\n        /* \"#utility.yul\":2213:2217   */\n      0x20\n        /* \"#utility.yul\":2206:2211   */\n      dup7\n        /* \"#utility.yul\":2202:2218   */\n      add\n        /* \"#utility.yul\":2167:2232   */\n      tag_95\n      jump\t// in\n    tag_174:\n        /* \"#utility.yul\":2257:2286   */\n      tag_175\n        /* \"#utility.yul\":2279:2285   */\n      dup2\n        /* \"#utility.yul\":2257:2286   */\n      tag_96\n      jump\t// in\n    tag_175:\n        /* \"#utility.yul\":2252:2255   */\n      dup5\n        /* \"#utility.yul\":2248:2287   */\n      add\n        /* \"#utility.yul\":2241:2287   */\n      swap2\n      pop\n        /* \"#utility.yul\":2008:2293   */\n      pop\n        /* \"#utility.yul\":1916:2293   */\n      swap3\n      swap2\n      pop\n      pop\n      jump\t// out\n        /* \"#utility.yul\":2299:2417   */\n    tag_98:\n        /* \"#utility.yul\":2386:2410   */\n      tag_177\n        /* \"#utility.yul\":2404:2409   */\n      dup2\n        /* \"#utility.yul\":2386:2410   */\n      tag_87\n      jump\t// in\n    tag_177:\n        /* \"#utility.yul\":2381:2384   */\n      dup3\n        /* \"#utility.yul\":2374:2411   */\n      mstore\n        /* \"#utility.yul\":2299:2417   */\n      pop\n      pop\n      jump\t// out\n        /* \"#utility.yul\":2423:3269   */\n    tag_13:\n        /* \"#utility.yul\":2668:2672   */\n      0x00\n        /* \"#utility.yul\":2706:2709   */\n      0xa0\n        /* \"#utility.yul\":2695:2704   */\n      dup3\n        /* \"#utility.yul\":2691:2710   */\n      add\n        /* \"#utility.yul\":2683:2710   */\n      swap1\n      pop\n        /* \"#utility.yul\":2720:2791   */\n      tag_179\n        /* \"#utility.yul\":2788:2789   */\n      0x00\n        /* \"#utility.yul\":2777:2786   */\n      dup4\n        /* \"#utility.yul\":2773:2790   */\n      add\n        /* \"#utility.yul\":2764:2770   */\n      dup9\n        /* \"#utility.yul\":2720:2791   */\n      tag_92\n      jump\t// in\n    tag_179:\n        /* \"#utility.yul\":2838:2847   */\n      dup2\n        /* \"#utility.yul\":2832:2836   */\n      dup2\n        /* \"#utility.yul\":2828:2848   */\n      sub\n        /* \"#utility.yul\":2823:2825   */\n      0x20\n        /* \"#utility.yul\":2812:2821   */\n      dup4\n        /* \"#utility.yul\":2808:2826   */\n      add\n        /* \"#utility.yul\":2801:2849   */\n      mstore\n        /* \"#utility.yul\":2866:2944   */\n      tag_180\n        /* \"#utility.yul\":2939:2943   */\n      dup2\n        /* \"#utility.yul\":2930:2936   */\n      dup8\n        /* \"#utility.yul\":2866:2944   */\n      tag_97\n      jump\t// in\n    tag_180:\n        /* \"#utility.yul\":2858:2944   */\n      swap1\n      pop\n        /* \"#utility.yul\":2991:3000   */\n      dup2\n        /* \"#utility.yul\":2985:2989   */\n      dup2\n        /* \"#utility.yul\":2981:3001   */\n      sub\n        /* \"#utility.yul\":2976:2978   */\n      0x40\n        /* \"#utility.yul\":2965:2974   */\n      dup4\n        /* \"#utility.yul\":2961:2979   */\n      add\n        /* \"#utility.yul\":2954:3002   */\n      mstore\n        /* \"#utility.yul\":3019:3097   */\n      tag_181\n        /* \"#utility.yul\":3092:3096   */\n      dup2\n        /* \"#utility.yul\":3083:3089   */\n      dup7\n        /* \"#utility.yul\":3019:3097   */\n      tag_97\n      jump\t// in\n    tag_181:\n        /* \"#utility.yul\":3011:3097   */\n      swap1\n      pop\n        /* \"#utility.yul\":3107:3179   */\n      tag_182\n        /* \"#utility.yul\":3175:3177   */\n      0x60\n        /* \"#utility.yul\":3164:3173   */\n      dup4\n        /* \"#utility.yul\":3160:3178   */\n      add\n        /* \"#utility.yul\":3151:3157   */\n      dup6\n        /* \"#utility.yul\":3107:3179   */\n      tag_98\n      jump\t// in\n    tag_182:\n        /* \"#utility.yul\":3189:3262   */\n      tag_183\n        /* \"#utility.yul\":3257:3260   */\n      0x80\n        /* \"#utility.yul\":3246:3255   */\n      dup4\n        /* \"#utility.yul\":3242:3261   */\n      add\n        /* \"#utility.yul\":3233:3239   */\n      dup5\n        /* \"#utility.yul\":3189:3262   */\n      tag_98\n      jump\t// in\n    tag_183:\n        /* \"#utility.yul\":2423:3269   */\n      swap7\n      swap6\n      pop\n      pop\n      pop\n      pop\n      pop\n      pop\n      jump\t// out\n        /* \"#utility.yul\":3275:3409   */\n    tag_99:\n        /* \"#utility.yul\":3362:3368   */\n      0x00\n        /* \"#utility.yul\":3396:3401   */\n      dup2\n        /* \"#utility.yul\":3390:3402   */\n      mload\n        /* \"#utility.yul\":3380:3402   */\n      swap1\n      pop\n        /* \"#utility.yul\":3275:3409   */\n      swap2\n      swap1\n      pop\n      jump\t// out\n        /* \"#utility.yul\":3415:3619   */\n    tag_100:\n        /* \"#utility.yul\":3534:3545   */\n      0x00\n        /* \"#utility.yul\":3568:3574   */\n      dup3\n        /* \"#utility.yul\":3563:3566   */\n      dup3\n        /* \"#utility.yul\":3556:3575   */\n      mstore\n        /* \"#utility.yul\":3608:3612   */\n      0x20\n        /* \"#utility.yul\":3603:3606   */\n      dup3\n        /* \"#utility.yul\":3599:3613   */\n      add\n        /* \"#utility.yul\":3584:3613   */\n      swap1\n      pop\n        /* \"#utility.yul\":3415:3619   */\n      swap3\n      swap2\n      pop\n      pop\n      jump\t// out\n        /* \"#utility.yul\":3625:3777   */\n    tag_101:\n        /* \"#utility.yul\":3712:3716   */\n      0x00\n        /* \"#utility.yul\":3735:3738   */\n      dup2\n        /* \"#utility.yul\":3727:3738   */\n      swap1\n      pop\n        /* \"#utility.yul\":3765:3769   */\n      0x20\n        /* \"#utility.yul\":3760:3763   */\n      dup3\n        /* \"#utility.yul\":3756:3770   */\n      add\n        /* \"#utility.yul\":3748:3770   */\n      swap1\n      pop\n        /* \"#utility.yul\":3625:3777   */\n      swap2\n      swap1\n      pop\n      jump\t// out\n        /* \"#utility.yul\":3783:3891   */\n    tag_102:\n        /* \"#utility.yul\":3860:3884   */\n      tag_188\n        /* \"#utility.yul\":3878:3883   */\n      dup2\n        /* \"#utility.yul\":3860:3884   */\n      tag_91\n      jump\t// in\n    tag_188:\n        /* \"#utility.yul\":3855:3858   */\n      dup3\n        /* \"#utility.yul\":3848:3885   */\n      mstore\n        /* \"#utility.yul\":3783:3891   */\n      pop\n      pop\n      jump\t// out\n        /* \"#utility.yul\":3897:4056   */\n    tag_103:\n        /* \"#utility.yul\":3971:3982   */\n      0x00\n        /* \"#utility.yul\":4005:4011   */\n      dup3\n        /* \"#utility.yul\":4000:4003   */\n      dup3\n        /* \"#utility.yul\":3993:4012   */\n      mstore\n        /* \"#utility.yul\":4045:4049   */\n      0x20\n        /* \"#utility.yul\":4040:4043   */\n      dup3\n        /* \"#utility.yul\":4036:4050   */\n      add\n        /* \"#utility.yul\":4021:4050   */\n      swap1\n      pop\n        /* \"#utility.yul\":3897:4056   */\n      swap3\n      swap2\n      pop\n      pop\n      jump\t// out\n        /* \"#utility.yul\":4062:4419   */\n    tag_104:\n        /* \"#utility.yul\":4140:4143   */\n      0x00\n        /* \"#utility.yul\":4168:4207   */\n      tag_191\n        /* \"#utility.yul\":4201:4206   */\n      dup3\n        /* \"#utility.yul\":4168:4207   */\n      tag_93\n      jump\t// in\n    tag_191:\n        /* \"#utility.yul\":4223:4284   */\n      tag_192\n        /* \"#utility.yul\":4277:4283   */\n      dup2\n        /* \"#utility.yul\":4272:4275   */\n      dup6\n        /* \"#utility.yul\":4223:4284   */\n      tag_103\n      jump\t// in\n    tag_192:\n        /* \"#utility.yul\":4216:4284   */\n      swap4\n      pop\n        /* \"#utility.yul\":4293:4358   */\n      tag_193\n        /* \"#utility.yul\":4351:4357   */\n      dup2\n        /* \"#utility.yul\":4346:4349   */\n      dup6\n        /* \"#utility.yul\":4339:4343   */\n      0x20\n        /* \"#utility.yul\":4332:4337   */\n      dup7\n        /* \"#utility.yul\":4328:4344   */\n      add\n        /* \"#utility.yul\":4293:4358   */\n      tag_95\n      jump\t// in\n    tag_193:\n        /* \"#utility.yul\":4383:4412   */\n      tag_194\n        /* \"#utility.yul\":4405:4411   */\n      dup2\n        /* \"#utility.yul\":4383:4412   */\n      tag_96\n      jump\t// in\n    tag_194:\n        /* \"#utility.yul\":4378:4381   */\n      dup5\n        /* \"#utility.yul\":4374:4413   */\n      add\n        /* \"#utility.yul\":4367:4413   */\n      swap2\n      pop\n        /* \"#utility.yul\":4144:4419   */\n      pop\n        /* \"#utility.yul\":4062:4419   */\n      swap3\n      swap2\n      pop\n      pop\n      jump\t// out\n        /* \"#utility.yul\":4425:4533   */\n    tag_105:\n        /* \"#utility.yul\":4502:4526   */\n      tag_196\n        /* \"#utility.yul\":4520:4525   */\n      dup2\n        /* \"#utility.yul\":4502:4526   */\n      tag_87\n      jump\t// in\n    tag_196:\n        /* \"#utility.yul\":4497:4500   */\n      dup3\n        /* \"#utility.yul\":4490:4527   */\n      mstore\n        /* \"#utility.yul\":4425:4533   */\n      pop\n      pop\n      jump\t// out\n        /* \"#utility.yul\":4609:5800   */\n    tag_106:\n        /* \"#utility.yul\":4708:4711   */\n      0x00\n        /* \"#utility.yul\":4744:4748   */\n      0xa0\n        /* \"#utility.yul\":4739:4742   */\n      dup4\n        /* \"#utility.yul\":4735:4749   */\n      add\n        /* \"#utility.yul\":4833:4837   */\n      0x00\n        /* \"#utility.yul\":4826:4831   */\n      dup4\n        /* \"#utility.yul\":4822:4838   */\n      add\n        /* \"#utility.yul\":4816:4839   */\n      mload\n        /* \"#utility.yul\":4852:4915   */\n      tag_198\n        /* \"#utility.yul\":4909:4913   */\n      0x00\n        /* \"#utility.yul\":4904:4907   */\n      dup7\n        /* \"#utility.yul\":4900:4914   */\n      add\n        /* \"#utility.yul\":4886:4898   */\n      dup3\n        /* \"#utility.yul\":4852:4915   */\n      tag_102\n      jump\t// in\n    tag_198:\n        /* \"#utility.yul\":4759:4925   */\n      pop\n        /* \"#utility.yul\":5008:5012   */\n      0x20\n        /* \"#utility.yul\":5001:5006   */\n      dup4\n        /* \"#utility.yul\":4997:5013   */\n      add\n        /* \"#utility.yul\":4991:5014   */\n      mload\n        /* \"#utility.yul\":5061:5064   */\n      dup5\n        /* \"#utility.yul\":5055:5059   */\n      dup3\n        /* \"#utility.yul\":5051:5065   */\n      sub\n        /* \"#utility.yul\":5044:5048   */\n      0x20\n        /* \"#utility.yul\":5039:5042   */\n      dup7\n        /* \"#utility.yul\":5035:5049   */\n      add\n        /* \"#utility.yul\":5028:5066   */\n      mstore\n        /* \"#utility.yul\":5087:5160   */\n      tag_199\n        /* \"#utility.yul\":5155:5159   */\n      dup3\n        /* \"#utility.yul\":5141:5153   */\n      dup3\n        /* \"#utility.yul\":5087:5160   */\n      tag_104\n      jump\t// in\n    tag_199:\n        /* \"#utility.yul\":5079:5160   */\n      swap2\n      pop\n        /* \"#utility.yul\":4935:5171   */\n      pop\n        /* \"#utility.yul\":5256:5260   */\n      0x40\n        /* \"#utility.yul\":5249:5254   */\n      dup4\n        /* \"#utility.yul\":5245:5261   */\n      add\n        /* \"#utility.yul\":5239:5262   */\n      mload\n        /* \"#utility.yul\":5309:5312   */\n      dup5\n        /* \"#utility.yul\":5303:5307   */\n      dup3\n        /* \"#utility.yul\":5299:5313   */\n      sub\n        /* \"#utility.yul\":5292:5296   */\n      0x40\n        /* \"#utility.yul\":5287:5290   */\n      dup7\n        /* \"#utility.yul\":5283:5297   */\n      add\n        /* \"#utility.yul\":5276:5314   */\n      mstore\n        /* \"#utility.yul\":5335:5408   */\n      tag_200\n        /* \"#utility.yul\":5403:5407   */\n      dup3\n        /* \"#utility.yul\":5389:5401   */\n      dup3\n        /* \"#utility.yul\":5335:5408   */\n      tag_104\n      jump\t// in\n    tag_200:\n        /* \"#utility.yul\":5327:5408   */\n      swap2\n      pop\n        /* \"#utility.yul\":5181:5419   */\n      pop\n        /* \"#utility.yul\":5506:5510   */\n      0x60\n        /* \"#utility.yul\":5499:5504   */\n      dup4\n        /* \"#utility.yul\":5495:5511   */\n      add\n        /* \"#utility.yul\":5489:5512   */\n      mload\n        /* \"#utility.yul\":5525:5588   */\n      tag_201\n        /* \"#utility.yul\":5582:5586   */\n      0x60\n        /* \"#utility.yul\":5577:5580   */\n      dup7\n        /* \"#utility.yul\":5573:5587   */\n      add\n        /* \"#utility.yul\":5559:5571   */\n      dup3\n        /* \"#utility.yul\":5525:5588   */\n      tag_105\n      jump\t// in\n    tag_201:\n        /* \"#utility.yul\":5429:5598   */\n      pop\n        /* \"#utility.yul\":5681:5685   */\n      0x80\n        /* \"#utility.yul\":5674:5679   */\n      dup4\n        /* \"#utility.yul\":5670:5686   */\n      add\n        /* \"#utility.yul\":5664:5687   */\n      mload\n        /* \"#utility.yul\":5700:5763   */\n      tag_202\n        /* \"#utility.yul\":5757:5761   */\n      0x80\n        /* \"#utility.yul\":5752:5755   */\n      dup7\n        /* \"#utility.yul\":5748:5762   */\n      add\n        /* \"#utility.yul\":5734:5746   */\n      dup3\n        /* \"#utility.yul\":5700:5763   */\n      tag_105\n      jump\t// in\n    tag_202:\n        /* \"#utility.yul\":5608:5773   */\n      pop\n        /* \"#utility.yul\":5790:5794   */\n      dup1\n        /* \"#utility.yul\":5783:5794   */\n      swap2\n      pop\n        /* \"#utility.yul\":4713:5800   */\n      pop\n        /* \"#utility.yul\":4609:5800   */\n      swap3\n      swap2\n      pop\n      pop\n      jump\t// out\n        /* \"#utility.yul\":5806:6042   */\n    tag_107:\n        /* \"#utility.yul\":5915:5925   */\n      0x00\n        /* \"#utility.yul\":5950:6036   */\n      tag_204\n        /* \"#utility.yul\":6032:6035   */\n      dup4\n        /* \"#utility.yul\":6024:6030   */\n      dup4\n        /* \"#utility.yul\":5950:6036   */\n      tag_106\n      jump\t// in\n    tag_204:\n        /* \"#utility.yul\":5936:6036   */\n      swap1\n      pop\n        /* \"#utility.yul\":5806:6042   */\n      swap3\n      swap2\n      pop\n      pop\n      jump\t// out\n        /* \"#utility.yul\":6048:6181   */\n    tag_108:\n        /* \"#utility.yul\":6138:6142   */\n      0x00\n        /* \"#utility.yul\":6170:6174   */\n      0x20\n        /* \"#utility.yul\":6165:6168   */\n      dup3\n        /* \"#utility.yul\":6161:6175   */\n      add\n        /* \"#utility.yul\":6153:6175   */\n      swap1\n      pop\n        /* \"#utility.yul\":6048:6181   */\n      swap2\n      swap1\n      pop\n      jump\t// out\n        /* \"#utility.yul\":6261:7332   */\n    tag_109:\n        /* \"#utility.yul\":6420:6423   */\n      0x00\n        /* \"#utility.yul\":6449:6523   */\n      tag_207\n        /* \"#utility.yul\":6517:6522   */\n      dup3\n        /* \"#utility.yul\":6449:6523   */\n      tag_99\n      jump\t// in\n    tag_207:\n        /* \"#utility.yul\":6539:6645   */\n      tag_208\n        /* \"#utility.yul\":6638:6644   */\n      dup2\n        /* \"#utility.yul\":6633:6636   */\n      dup6\n        /* \"#utility.yul\":6539:6645   */\n      tag_100\n      jump\t// in\n    tag_208:\n        /* \"#utility.yul\":6532:6645   */\n      swap4\n      pop\n        /* \"#utility.yul\":6671:6674   */\n      dup4\n        /* \"#utility.yul\":6716:6720   */\n      0x20\n        /* \"#utility.yul\":6708:6714   */\n      dup3\n        /* \"#utility.yul\":6704:6721   */\n      mul\n        /* \"#utility.yul\":6699:6702   */\n      dup6\n        /* \"#utility.yul\":6695:6722   */\n      add\n        /* \"#utility.yul\":6746:6822   */\n      tag_209\n        /* \"#utility.yul\":6816:6821   */\n      dup6\n        /* \"#utility.yul\":6746:6822   */\n      tag_101\n      jump\t// in\n    tag_209:\n        /* \"#utility.yul\":6845:6852   */\n      dup1\n        /* \"#utility.yul\":6876:6877   */\n      0x00\n        /* \"#utility.yul\":6861:7287   */\n    tag_210:\n        /* \"#utility.yul\":6886:6892   */\n      dup6\n        /* \"#utility.yul\":6883:6884   */\n      dup2\n        /* \"#utility.yul\":6880:6893   */\n      lt\n        /* \"#utility.yul\":6861:7287   */\n      iszero\n      tag_212\n      jumpi\n        /* \"#utility.yul\":6957:6966   */\n      dup5\n        /* \"#utility.yul\":6951:6955   */\n      dup5\n        /* \"#utility.yul\":6947:6967   */\n      sub\n        /* \"#utility.yul\":6942:6945   */\n      dup10\n        /* \"#utility.yul\":6935:6968   */\n      mstore\n        /* \"#utility.yul\":7008:7014   */\n      dup2\n        /* \"#utility.yul\":7002:7015   */\n      mload\n        /* \"#utility.yul\":7036:7140   */\n      tag_213\n        /* \"#utility.yul\":7135:7139   */\n      dup6\n        /* \"#utility.yul\":7120:7133   */\n      dup3\n        /* \"#utility.yul\":7036:7140   */\n      tag_107\n      jump\t// in\n    tag_213:\n        /* \"#utility.yul\":7028:7140   */\n      swap5\n      pop\n        /* \"#utility.yul\":7163:7243   */\n      tag_214\n        /* \"#utility.yul\":7236:7242   */\n      dup4\n        /* \"#utility.yul\":7163:7243   */\n      tag_108\n      jump\t// in\n    tag_214:\n        /* \"#utility.yul\":7153:7243   */\n      swap3\n      pop\n        /* \"#utility.yul\":7272:7276   */\n      0x20\n        /* \"#utility.yul\":7267:7270   */\n      dup11\n        /* \"#utility.yul\":7263:7277   */\n      add\n        /* \"#utility.yul\":7256:7277   */\n      swap10\n      pop\n        /* \"#utility.yul\":6921:7287   */\n      pop\n        /* \"#utility.yul\":6908:6909   */\n      0x01\n        /* \"#utility.yul\":6905:6906   */\n      dup2\n        /* \"#utility.yul\":6901:6910   */\n      add\n        /* \"#utility.yul\":6896:6910   */\n      swap1\n      pop\n        /* \"#utility.yul\":6861:7287   */\n      jump(tag_210)\n    tag_212:\n        /* \"#utility.yul\":6865:6879   */\n      pop\n        /* \"#utility.yul\":7303:7307   */\n      dup3\n        /* \"#utility.yul\":7296:7307   */\n      swap8\n      pop\n        /* \"#utility.yul\":7323:7326   */\n      dup8\n        /* \"#utility.yul\":7316:7326   */\n      swap6\n      pop\n        /* \"#utility.yul\":6425:7332   */\n      pop\n      pop\n      pop\n      pop\n      pop\n        /* \"#utility.yul\":6261:7332   */\n      swap3\n      swap2\n      pop\n      pop\n      jump\t// out\n        /* \"#utility.yul\":7338:7791   */\n    tag_17:\n        /* \"#utility.yul\":7521:7525   */\n      0x00\n        /* \"#utility.yul\":7559:7561   */\n      0x20\n        /* \"#utility.yul\":7548:7557   */\n      dup3\n        /* \"#utility.yul\":7544:7562   */\n      add\n        /* \"#utility.yul\":7536:7562   */\n      swap1\n      pop\n        /* \"#utility.yul\":7608:7617   */\n      dup2\n        /* \"#utility.yul\":7602:7606   */\n      dup2\n        /* \"#utility.yul\":7598:7618   */\n      sub\n        /* \"#utility.yul\":7594:7595   */\n      0x00\n        /* \"#utility.yul\":7583:7592   */\n      dup4\n        /* \"#utility.yul\":7579:7596   */\n      add\n        /* \"#utility.yul\":7572:7619   */\n      mstore\n        /* \"#utility.yul\":7636:7784   */\n      tag_216\n        /* \"#utility.yul\":7779:7783   */\n      dup2\n        /* \"#utility.yul\":7770:7776   */\n      dup5\n        /* \"#utility.yul\":7636:7784   */\n      tag_109\n      jump\t// in\n    tag_216:\n        /* \"#utility.yul\":7628:7784   */\n      swap1\n      pop\n        /* \"#utility.yul\":7338:7791   */\n      swap3\n      swap2\n      pop\n      pop\n      jump\t// out\n        /* \"#utility.yul\":7797:7914   */\n    tag_110:\n        /* \"#utility.yul\":7906:7907   */\n      0x00\n        /* \"#utility.yul\":7903:7904   */\n      dup1\n        /* \"#utility.yul\":7896:7908   */\n      revert\n        /* \"#utility.yul\":7920:8037   */\n    tag_111:\n        /* \"#utility.yul\":8029:8030   */\n      0x00\n        /* \"#utility.yul\":8026:8027   */\n      dup1\n        /* \"#utility.yul\":8019:8031   */\n      revert\n        /* \"#utility.yul\":8043:8223   */\n    tag_112:\n        /* \"#utility.yul\":8091:8168   */\n      0x4e487b7100000000000000000000000000000000000000000000000000000000\n        /* \"#utility.yul\":8088:8089   */\n      0x00\n        /* \"#utility.yul\":8081:8169   */\n      mstore\n        /* \"#utility.yul\":8188:8192   */\n      0x41\n        /* \"#utility.yul\":8185:8186   */\n      0x04\n        /* \"#utility.yul\":8178:8193   */\n      mstore\n        /* \"#utility.yul\":8212:8216   */\n      0x24\n        /* \"#utility.yul\":8209:8210   */\n      0x00\n        /* \"#utility.yul\":8202:8217   */\n      revert\n        /* \"#utility.yul\":8229:8510   */\n    tag_113:\n        /* \"#utility.yul\":8312:8339   */\n      tag_221\n        /* \"#utility.yul\":8334:8338   */\n      dup3\n        /* \"#utility.yul\":8312:8339   */\n      tag_96\n      jump\t// in\n    tag_221:\n        /* \"#utility.yul\":8304:8310   */\n      dup2\n        /* \"#utility.yul\":8300:8340   */\n      add\n        /* \"#utility.yul\":8442:8448   */\n      dup2\n        /* \"#utility.yul\":8430:8440   */\n      dup2\n        /* \"#utility.yul\":8427:8449   */\n      lt\n        /* \"#utility.yul\":8406:8424   */\n      0xffffffffffffffff\n        /* \"#utility.yul\":8394:8404   */\n      dup3\n        /* \"#utility.yul\":8391:8425   */\n      gt\n        /* \"#utility.yul\":8388:8450   */\n      or\n        /* \"#utility.yul\":8385:8473   */\n      iszero\n      tag_222\n      jumpi\n        /* \"#utility.yul\":8453:8471   */\n      tag_223\n      tag_112\n      jump\t// in\n    tag_223:\n        /* \"#utility.yul\":8385:8473   */\n    tag_222:\n        /* \"#utility.yul\":8493:8503   */\n      dup1\n        /* \"#utility.yul\":8489:8491   */\n      0x40\n        /* \"#utility.yul\":8482:8504   */\n      mstore\n        /* \"#utility.yul\":8272:8510   */\n      pop\n        /* \"#utility.yul\":8229:8510   */\n      pop\n      pop\n      jump\t// out\n        /* \"#utility.yul\":8516:8645   */\n    tag_114:\n        /* \"#utility.yul\":8550:8556   */\n      0x00\n        /* \"#utility.yul\":8577:8597   */\n      tag_225\n      tag_84\n      jump\t// in\n    tag_225:\n        /* \"#utility.yul\":8567:8597   */\n      swap1\n      pop\n        /* \"#utility.yul\":8606:8639   */\n      tag_226\n        /* \"#utility.yul\":8634:8638   */\n      dup3\n        /* \"#utility.yul\":8626:8632   */\n      dup3\n        /* \"#utility.yul\":8606:8639   */\n      tag_113\n      jump\t// in\n    tag_226:\n        /* \"#utility.yul\":8516:8645   */\n      swap2\n      swap1\n      pop\n      jump\t// out\n        /* \"#utility.yul\":8651:8959   */\n    tag_115:\n        /* \"#utility.yul\":8713:8717   */\n      0x00\n        /* \"#utility.yul\":8803:8821   */\n      0xffffffffffffffff\n        /* \"#utility.yul\":8795:8801   */\n      dup3\n        /* \"#utility.yul\":8792:8822   */\n      gt\n        /* \"#utility.yul\":8789:8845   */\n      iszero\n      tag_228\n      jumpi\n        /* \"#utility.yul\":8825:8843   */\n      tag_229\n      tag_112\n      jump\t// in\n    tag_229:\n        /* \"#utility.yul\":8789:8845   */\n    tag_228:\n        /* \"#utility.yul\":8863:8892   */\n      tag_230\n        /* \"#utility.yul\":8885:8891   */\n      dup3\n        /* \"#utility.yul\":8863:8892   */\n      tag_96\n      jump\t// in\n    tag_230:\n        /* \"#utility.yul\":8855:8892   */\n      swap1\n      pop\n        /* \"#utility.yul\":8947:8951   */\n      0x20\n        /* \"#utility.yul\":8941:8945   */\n      dup2\n        /* \"#utility.yul\":8937:8952   */\n      add\n        /* \"#utility.yul\":8929:8952   */\n      swap1\n      pop\n        /* \"#utility.yul\":8651:8959   */\n      swap2\n      swap1\n      pop\n      jump\t// out\n        /* \"#utility.yul\":8965:9113   */\n    tag_116:\n        /* \"#utility.yul\":9063:9069   */\n      dup3\n        /* \"#utility.yul\":9058:9061   */\n      dup2\n        /* \"#utility.yul\":9053:9056   */\n      dup4\n        /* \"#utility.yul\":9040:9070   */\n      calldatacopy\n        /* \"#utility.yul\":9104:9105   */\n      0x00\n        /* \"#utility.yul\":9095:9101   */\n      dup4\n        /* \"#utility.yul\":9090:9093   */\n      dup4\n        /* \"#utility.yul\":9086:9102   */\n      add\n        /* \"#utility.yul\":9079:9106   */\n      mstore\n        /* \"#utility.yul\":8965:9113   */\n      pop\n      pop\n      pop\n      jump\t// out\n        /* \"#utility.yul\":9119:9544   */\n    tag_117:\n        /* \"#utility.yul\":9197:9202   */\n      0x00\n        /* \"#utility.yul\":9222:9288   */\n      tag_233\n        /* \"#utility.yul\":9238:9287   */\n      tag_234\n        /* \"#utility.yul\":9280:9286   */\n      dup5\n        /* \"#utility.yul\":9238:9287   */\n      tag_115\n      jump\t// in\n    tag_234:\n        /* \"#utility.yul\":9222:9288   */\n      tag_114\n      jump\t// in\n    tag_233:\n        /* \"#utility.yul\":9213:9288   */\n      swap1\n      pop\n        /* \"#utility.yul\":9311:9317   */\n      dup3\n        /* \"#utility.yul\":9304:9309   */\n      dup2\n        /* \"#utility.yul\":9297:9318   */\n      mstore\n        /* \"#utility.yul\":9349:9353   */\n      0x20\n        /* \"#utility.yul\":9342:9347   */\n      dup2\n        /* \"#utility.yul\":9338:9354   */\n      add\n        /* \"#utility.yul\":9387:9390   */\n      dup5\n        /* \"#utility.yul\":9378:9384   */\n      dup5\n        /* \"#utility.yul\":9373:9376   */\n      dup5\n        /* \"#utility.yul\":9369:9385   */\n      add\n        /* \"#utility.yul\":9366:9391   */\n      gt\n        /* \"#utility.yul\":9363:9475   */\n      iszero\n      tag_235\n      jumpi\n        /* \"#utility.yul\":9394:9473   */\n      tag_236\n      tag_111\n      jump\t// in\n    tag_236:\n        /* \"#utility.yul\":9363:9475   */\n    tag_235:\n        /* \"#utility.yul\":9484:9538   */\n      tag_237\n        /* \"#utility.yul\":9531:9537   */\n      dup5\n        /* \"#utility.yul\":9526:9529   */\n      dup3\n        /* \"#utility.yul\":9521:9524   */\n      dup6\n        /* \"#utility.yul\":9484:9538   */\n      tag_116\n      jump\t// in\n    tag_237:\n        /* \"#utility.yul\":9203:9544   */\n      pop\n        /* \"#utility.yul\":9119:9544   */\n      swap4\n      swap3\n      pop\n      pop\n      pop\n      jump\t// out\n        /* \"#utility.yul\":9564:9904   */\n    tag_118:\n        /* \"#utility.yul\":9620:9625   */\n      0x00\n        /* \"#utility.yul\":9669:9672   */\n      dup3\n        /* \"#utility.yul\":9662:9666   */\n      0x1f\n        /* \"#utility.yul\":9654:9660   */\n      dup4\n        /* \"#utility.yul\":9650:9667   */\n      add\n        /* \"#utility.yul\":9646:9673   */\n      slt\n        /* \"#utility.yul\":9636:9758   */\n      tag_239\n      jumpi\n        /* \"#utility.yul\":9677:9756   */\n      tag_240\n      tag_110\n      jump\t// in\n    tag_240:\n        /* \"#utility.yul\":9636:9758   */\n    tag_239:\n        /* \"#utility.yul\":9794:9800   */\n      dup2\n        /* \"#utility.yul\":9781:9801   */\n      calldataload\n        /* \"#utility.yul\":9819:9898   */\n      tag_241\n        /* \"#utility.yul\":9894:9897   */\n      dup5\n        /* \"#utility.yul\":9886:9892   */\n      dup3\n        /* \"#utility.yul\":9879:9883   */\n      0x20\n        /* \"#utility.yul\":9871:9877   */\n      dup7\n        /* \"#utility.yul\":9867:9884   */\n      add\n        /* \"#utility.yul\":9819:9898   */\n      tag_117\n      jump\t// in\n    tag_241:\n        /* \"#utility.yul\":9810:9898   */\n      swap2\n      pop\n        /* \"#utility.yul\":9626:9904   */\n      pop\n        /* \"#utility.yul\":9564:9904   */\n      swap3\n      swap2\n      pop\n      pop\n      jump\t// out\n        /* \"#utility.yul\":9910:10744   */\n    tag_20:\n        /* \"#utility.yul\":9998:10004   */\n      0x00\n        /* \"#utility.yul\":10006:10012   */\n      dup1\n        /* \"#utility.yul\":10055:10057   */\n      0x40\n        /* \"#utility.yul\":10043:10052   */\n      dup4\n        /* \"#utility.yul\":10034:10041   */\n      dup6\n        /* \"#utility.yul\":10030:10053   */\n      sub\n        /* \"#utility.yul\":10026:10058   */\n      slt\n        /* \"#utility.yul\":10023:10142   */\n      iszero\n      tag_243\n      jumpi\n        /* \"#utility.yul\":10061:10140   */\n      tag_244\n      tag_85\n      jump\t// in\n    tag_244:\n        /* \"#utility.yul\":10023:10142   */\n    tag_243:\n        /* \"#utility.yul\":10209:10210   */\n      0x00\n        /* \"#utility.yul\":10198:10207   */\n      dup4\n        /* \"#utility.yul\":10194:10211   */\n      add\n        /* \"#utility.yul\":10181:10212   */\n      calldataload\n        /* \"#utility.yul\":10239:10257   */\n      0xffffffffffffffff\n        /* \"#utility.yul\":10231:10237   */\n      dup2\n        /* \"#utility.yul\":10228:10258   */\n      gt\n        /* \"#utility.yul\":10225:10342   */\n      iszero\n      tag_245\n      jumpi\n        /* \"#utility.yul\":10261:10340   */\n      tag_246\n      tag_86\n      jump\t// in\n    tag_246:\n        /* \"#utility.yul\":10225:10342   */\n    tag_245:\n        /* \"#utility.yul\":10366:10429   */\n      tag_247\n        /* \"#utility.yul\":10421:10428   */\n      dup6\n        /* \"#utility.yul\":10412:10418   */\n      dup3\n        /* \"#utility.yul\":10401:10410   */\n      dup7\n        /* \"#utility.yul\":10397:10419   */\n      add\n        /* \"#utility.yul\":10366:10429   */\n      tag_118\n      jump\t// in\n    tag_247:\n        /* \"#utility.yul\":10356:10429   */\n      swap3\n      pop\n        /* \"#utility.yul\":10152:10439   */\n      pop\n        /* \"#utility.yul\":10506:10508   */\n      0x20\n        /* \"#utility.yul\":10495:10504   */\n      dup4\n        /* \"#utility.yul\":10491:10509   */\n      add\n        /* \"#utility.yul\":10478:10510   */\n      calldataload\n        /* \"#utility.yul\":10537:10555   */\n      0xffffffffffffffff\n        /* \"#utility.yul\":10529:10535   */\n      dup2\n        /* \"#utility.yul\":10526:10556   */\n      gt\n        /* \"#utility.yul\":10523:10640   */\n      iszero\n      tag_248\n      jumpi\n        /* \"#utility.yul\":10559:10638   */\n      tag_249\n      tag_86\n      jump\t// in\n    tag_249:\n        /* \"#utility.yul\":10523:10640   */\n    tag_248:\n        /* \"#utility.yul\":10664:10727   */\n      tag_250\n        /* \"#utility.yul\":10719:10726   */\n      dup6\n        /* \"#utility.yul\":10710:10716   */\n      dup3\n        /* \"#utility.yul\":10699:10708   */\n      dup7\n        /* \"#utility.yul\":10695:10717   */\n      add\n        /* \"#utility.yul\":10664:10727   */\n      tag_118\n      jump\t// in\n    tag_250:\n        /* \"#utility.yul\":10654:10727   */\n      swap2\n      pop\n        /* \"#utility.yul\":10449:10737   */\n      pop\n        /* \"#utility.yul\":9910:10744   */\n      swap3\n      pop\n      swap3\n      swap1\n      pop\n      jump\t// out\n        /* \"#utility.yul\":10750:10872   */\n    tag_119:\n        /* \"#utility.yul\":10823:10847   */\n      tag_252\n        /* \"#utility.yul\":10841:10846   */\n      dup2\n        /* \"#utility.yul\":10823:10847   */\n      tag_91\n      jump\t// in\n    tag_252:\n        /* \"#utility.yul\":10816:10821   */\n      dup2\n        /* \"#utility.yul\":10813:10848   */\n      eq\n        /* \"#utility.yul\":10803:10866   */\n      tag_253\n      jumpi\n        /* \"#utility.yul\":10862:10863   */\n      0x00\n        /* \"#utility.yul\":10859:10860   */\n      dup1\n        /* \"#utility.yul\":10852:10864   */\n      revert\n        /* \"#utility.yul\":10803:10866   */\n    tag_253:\n        /* \"#utility.yul\":10750:10872   */\n      pop\n      jump\t// out\n        /* \"#utility.yul\":10878:11017   */\n    tag_120:\n        /* \"#utility.yul\":10924:10929   */\n      0x00\n        /* \"#utility.yul\":10962:10968   */\n      dup2\n        /* \"#utility.yul\":10949:10969   */\n      calldataload\n        /* \"#utility.yul\":10940:10969   */\n      swap1\n      pop\n        /* \"#utility.yul\":10978:11011   */\n      tag_255\n        /* \"#utility.yul\":11005:11010   */\n      dup2\n        /* \"#utility.yul\":10978:11011   */\n      tag_119\n      jump\t// in\n    tag_255:\n        /* \"#utility.yul\":10878:11017   */\n      swap3\n      swap2\n      pop\n      pop\n      jump\t// out\n        /* \"#utility.yul\":11023:11497   */\n    tag_27:\n        /* \"#utility.yul\":11091:11097   */\n      0x00\n        /* \"#utility.yul\":11099:11105   */\n      dup1\n        /* \"#utility.yul\":11148:11150   */\n      0x40\n        /* \"#utility.yul\":11136:11145   */\n      dup4\n        /* \"#utility.yul\":11127:11134   */\n      dup6\n        /* \"#utility.yul\":11123:11146   */\n      sub\n        /* \"#utility.yul\":11119:11151   */\n      slt\n        /* \"#utility.yul\":11116:11235   */\n      iszero\n      tag_257\n      jumpi\n        /* \"#utility.yul\":11154:11233   */\n      tag_258\n      tag_85\n      jump\t// in\n    tag_258:\n        /* \"#utility.yul\":11116:11235   */\n    tag_257:\n        /* \"#utility.yul\":11274:11275   */\n      0x00\n        /* \"#utility.yul\":11299:11352   */\n      tag_259\n        /* \"#utility.yul\":11344:11351   */\n      dup6\n        /* \"#utility.yul\":11335:11341   */\n      dup3\n        /* \"#utility.yul\":11324:11333   */\n      dup7\n        /* \"#utility.yul\":11320:11342   */\n      add\n        /* \"#utility.yul\":11299:11352   */\n      tag_89\n      jump\t// in\n    tag_259:\n        /* \"#utility.yul\":11289:11352   */\n      swap3\n      pop\n        /* \"#utility.yul\":11245:11362   */\n      pop\n        /* \"#utility.yul\":11401:11403   */\n      0x20\n        /* \"#utility.yul\":11427:11480   */\n      tag_260\n        /* \"#utility.yul\":11472:11479   */\n      dup6\n        /* \"#utility.yul\":11463:11469   */\n      dup3\n        /* \"#utility.yul\":11452:11461   */\n      dup7\n        /* \"#utility.yul\":11448:11470   */\n      add\n        /* \"#utility.yul\":11427:11480   */\n      tag_120\n      jump\t// in\n    tag_260:\n        /* \"#utility.yul\":11417:11480   */\n      swap2\n      pop\n        /* \"#utility.yul\":11372:11490   */\n      pop\n        /* \"#utility.yul\":11023:11497   */\n      swap3\n      pop\n      swap3\n      swap1\n      pop\n      jump\t// out\n        /* \"#utility.yul\":11503:11593   */\n    tag_121:\n        /* \"#utility.yul\":11537:11544   */\n      0x00\n        /* \"#utility.yul\":11580:11585   */\n      dup2\n        /* \"#utility.yul\":11573:11586   */\n      iszero\n        /* \"#utility.yul\":11566:11587   */\n      iszero\n        /* \"#utility.yul\":11555:11587   */\n      swap1\n      pop\n        /* \"#utility.yul\":11503:11593   */\n      swap2\n      swap1\n      pop\n      jump\t// out\n        /* \"#utility.yul\":11599:11708   */\n    tag_122:\n        /* \"#utility.yul\":11680:11701   */\n      tag_263\n        /* \"#utility.yul\":11695:11700   */\n      dup2\n        /* \"#utility.yul\":11680:11701   */\n      tag_121\n      jump\t// in\n    tag_263:\n        /* \"#utility.yul\":11675:11678   */\n      dup3\n        /* \"#utility.yul\":11668:11702   */\n      mstore\n        /* \"#utility.yul\":11599:11708   */\n      pop\n      pop\n      jump\t// out\n        /* \"#utility.yul\":11714:11924   */\n    tag_30:\n        /* \"#utility.yul\":11801:11805   */\n      0x00\n        /* \"#utility.yul\":11839:11841   */\n      0x20\n        /* \"#utility.yul\":11828:11837   */\n      dup3\n        /* \"#utility.yul\":11824:11842   */\n      add\n        /* \"#utility.yul\":11816:11842   */\n      swap1\n      pop\n        /* \"#utility.yul\":11852:11917   */\n      tag_265\n        /* \"#utility.yul\":11914:11915   */\n      0x00\n        /* \"#utility.yul\":11903:11912   */\n      dup4\n        /* \"#utility.yul\":11899:11916   */\n      add\n        /* \"#utility.yul\":11890:11896   */\n      dup5\n        /* \"#utility.yul\":11852:11917   */\n      tag_122\n      jump\t// in\n    tag_265:\n        /* \"#utility.yul\":11714:11924   */\n      swap3\n      swap2\n      pop\n      pop\n      jump\t// out\n        /* \"#utility.yul\":11930:12110   */\n    tag_123:\n        /* \"#utility.yul\":11978:12055   */\n      0x4e487b7100000000000000000000000000000000000000000000000000000000\n        /* \"#utility.yul\":11975:11976   */\n      0x00\n        /* \"#utility.yul\":11968:12056   */\n      mstore\n        /* \"#utility.yul\":12075:12079   */\n      0x22\n        /* \"#utility.yul\":12072:12073   */\n      0x04\n        /* \"#utility.yul\":12065:12080   */\n      mstore\n        /* \"#utility.yul\":12099:12103   */\n      0x24\n        /* \"#utility.yul\":12096:12097   */\n      0x00\n        /* \"#utility.yul\":12089:12104   */\n      revert\n        /* \"#utility.yul\":12116:12436   */\n    tag_34:\n        /* \"#utility.yul\":12160:12166   */\n      0x00\n        /* \"#utility.yul\":12197:12198   */\n      0x02\n        /* \"#utility.yul\":12191:12195   */\n      dup3\n        /* \"#utility.yul\":12187:12199   */\n      div\n        /* \"#utility.yul\":12177:12199   */\n      swap1\n      pop\n        /* \"#utility.yul\":12244:12245   */\n      0x01\n        /* \"#utility.yul\":12238:12242   */\n      dup3\n        /* \"#utility.yul\":12234:12246   */\n      and\n        /* \"#utility.yul\":12265:12283   */\n      dup1\n        /* \"#utility.yul\":12255:12336   */\n      tag_268\n      jumpi\n        /* \"#utility.yul\":12321:12325   */\n      0x7f\n        /* \"#utility.yul\":12313:12319   */\n      dup3\n        /* \"#utility.yul\":12309:12326   */\n      and\n        /* \"#utility.yul\":12299:12326   */\n      swap2\n      pop\n        /* \"#utility.yul\":12255:12336   */\n    tag_268:\n        /* \"#utility.yul\":12383:12385   */\n      0x20\n        /* \"#utility.yul\":12375:12381   */\n      dup3\n        /* \"#utility.yul\":12372:12386   */\n      lt\n        /* \"#utility.yul\":12352:12370   */\n      dup2\n        /* \"#utility.yul\":12349:12387   */\n      sub\n        /* \"#utility.yul\":12346:12430   */\n      tag_269\n      jumpi\n        /* \"#utility.yul\":12402:12420   */\n      tag_270\n      tag_123\n      jump\t// in\n    tag_270:\n        /* \"#utility.yul\":12346:12430   */\n    tag_269:\n        /* \"#utility.yul\":12167:12436   */\n      pop\n        /* \"#utility.yul\":12116:12436   */\n      swap2\n      swap1\n      pop\n      jump\t// out\n        /* \"#utility.yul\":12442:12613   */\n    tag_124:\n        /* \"#utility.yul\":12582:12605   */\n      0x5469746c652063616e6e6f7420626520656d7074790000000000000000000000\n        /* \"#utility.yul\":12578:12579   */\n      0x00\n        /* \"#utility.yul\":12570:12576   */\n      dup3\n        /* \"#utility.yul\":12566:12580   */\n      add\n        /* \"#utility.yul\":12559:12606   */\n      mstore\n        /* \"#utility.yul\":12442:12613   */\n      pop\n      jump\t// out\n        /* \"#utility.yul\":12619:12985   */\n    tag_125:\n        /* \"#utility.yul\":12761:12764   */\n      0x00\n        /* \"#utility.yul\":12782:12849   */\n      tag_273\n        /* \"#utility.yul\":12846:12848   */\n      0x15\n        /* \"#utility.yul\":12841:12844   */\n      dup4\n        /* \"#utility.yul\":12782:12849   */\n      tag_94\n      jump\t// in\n    tag_273:\n        /* \"#utility.yul\":12775:12849   */\n      swap2\n      pop\n        /* \"#utility.yul\":12858:12951   */\n      tag_274\n        /* \"#utility.yul\":12947:12950   */\n      dup3\n        /* \"#utility.yul\":12858:12951   */\n      tag_124\n      jump\t// in\n    tag_274:\n        /* \"#utility.yul\":12976:12978   */\n      0x20\n        /* \"#utility.yul\":12971:12974   */\n      dup3\n        /* \"#utility.yul\":12967:12979   */\n      add\n        /* \"#utility.yul\":12960:12979   */\n      swap1\n      pop\n        /* \"#utility.yul\":12619:12985   */\n      swap2\n      swap1\n      pop\n      jump\t// out\n        /* \"#utility.yul\":12991:13410   */\n    tag_61:\n        /* \"#utility.yul\":13157:13161   */\n      0x00\n        /* \"#utility.yul\":13195:13197   */\n      0x20\n        /* \"#utility.yul\":13184:13193   */\n      dup3\n        /* \"#utility.yul\":13180:13198   */\n      add\n        /* \"#utility.yul\":13172:13198   */\n      swap1\n      pop\n        /* \"#utility.yul\":13244:13253   */\n      dup2\n        /* \"#utility.yul\":13238:13242   */\n      dup2\n        /* \"#utility.yul\":13234:13254   */\n      sub\n        /* \"#utility.yul\":13230:13231   */\n      0x00\n        /* \"#utility.yul\":13219:13228   */\n      dup4\n        /* \"#utility.yul\":13215:13232   */\n      add\n        /* \"#utility.yul\":13208:13255   */\n      mstore\n        /* \"#utility.yul\":13272:13403   */\n      tag_276\n        /* \"#utility.yul\":13398:13402   */\n      dup2\n        /* \"#utility.yul\":13272:13403   */\n      tag_125\n      jump\t// in\n    tag_276:\n        /* \"#utility.yul\":13264:13403   */\n      swap1\n      pop\n        /* \"#utility.yul\":12991:13410   */\n      swap2\n      swap1\n      pop\n      jump\t// out\n        /* \"#utility.yul\":13416:13589   */\n    tag_126:\n        /* \"#utility.yul\":13556:13581   */\n      0x436f6e74656e742063616e6e6f7420626520656d707479000000000000000000\n        /* \"#utility.yul\":13552:13553   */\n      0x00\n        /* \"#utility.yul\":13544:13550   */\n      dup3\n        /* \"#utility.yul\":13540:13554   */\n      add\n        /* \"#utility.yul\":13533:13582   */\n      mstore\n        /* \"#utility.yul\":13416:13589   */\n      pop\n      jump\t// out\n        /* \"#utility.yul\":13595:13961   */\n    tag_127:\n        /* \"#utility.yul\":13737:13740   */\n      0x00\n        /* \"#utility.yul\":13758:13825   */\n      tag_279\n        /* \"#utility.yul\":13822:13824   */\n      0x17\n        /* \"#utility.yul\":13817:13820   */\n      dup4\n        /* \"#utility.yul\":13758:13825   */\n      tag_94\n      jump\t// in\n    tag_279:\n        /* \"#utility.yul\":13751:13825   */\n      swap2\n      pop\n        /* \"#utility.yul\":13834:13927   */\n      tag_280\n        /* \"#utility.yul\":13923:13926   */\n      dup3\n        /* \"#utility.yul\":13834:13927   */\n      tag_126\n      jump\t// in\n    tag_280:\n        /* \"#utility.yul\":13952:13954   */\n      0x20\n        /* \"#utility.yul\":13947:13950   */\n      dup3\n        /* \"#utility.yul\":13943:13955   */\n      add\n        /* \"#utility.yul\":13936:13955   */\n      swap1\n      pop\n        /* \"#utility.yul\":13595:13961   */\n      swap2\n      swap1\n      pop\n      jump\t// out\n        /* \"#utility.yul\":13967:14386   */\n    tag_64:\n        /* \"#utility.yul\":14133:14137   */\n      0x00\n        /* \"#utility.yul\":14171:14173   */\n      0x20\n        /* \"#utility.yul\":14160:14169   */\n      dup3\n        /* \"#utility.yul\":14156:14174   */\n      add\n        /* \"#utility.yul\":14148:14174   */\n      swap1\n      pop\n        /* \"#utility.yul\":14220:14229   */\n      dup2\n        /* \"#utility.yul\":14214:14218   */\n      dup2\n        /* \"#utility.yul\":14210:14230   */\n      sub\n        /* \"#utility.yul\":14206:14207   */\n      0x00\n        /* \"#utility.yul\":14195:14204   */\n      dup4\n        /* \"#utility.yul\":14191:14208   */\n      add\n        /* \"#utility.yul\":14184:14231   */\n      mstore\n        /* \"#utility.yul\":14248:14379   */\n      tag_282\n        /* \"#utility.yul\":14374:14378   */\n      dup2\n        /* \"#utility.yul\":14248:14379   */\n      tag_127\n      jump\t// in\n    tag_282:\n        /* \"#utility.yul\":14240:14379   */\n      swap1\n      pop\n        /* \"#utility.yul\":13967:14386   */\n      swap2\n      swap1\n      pop\n      jump\t// out\n        /* \"#utility.yul\":14392:14533   */\n    tag_128:\n        /* \"#utility.yul\":14441:14445   */\n      0x00\n        /* \"#utility.yul\":14464:14467   */\n      dup2\n        /* \"#utility.yul\":14456:14467   */\n      swap1\n      pop\n        /* \"#utility.yul\":14487:14490   */\n      dup2\n        /* \"#utility.yul\":14484:14485   */\n      0x00\n        /* \"#utility.yul\":14477:14491   */\n      mstore\n        /* \"#utility.yul\":14521:14525   */\n      0x20\n        /* \"#utility.yul\":14518:14519   */\n      0x00\n        /* \"#utility.yul\":14508:14526   */\n      keccak256\n        /* \"#utility.yul\":14500:14526   */\n      swap1\n      pop\n        /* \"#utility.yul\":14392:14533   */\n      swap2\n      swap1\n      pop\n      jump\t// out\n        /* \"#utility.yul\":14539:14632   */\n    tag_129:\n        /* \"#utility.yul\":14576:14582   */\n      0x00\n        /* \"#utility.yul\":14623:14625   */\n      0x20\n        /* \"#utility.yul\":14618:14620   */\n      0x1f\n        /* \"#utility.yul\":14611:14616   */\n      dup4\n        /* \"#utility.yul\":14607:14621   */\n      add\n        /* \"#utility.yul\":14603:14626   */\n      div\n        /* \"#utility.yul\":14593:14626   */\n      swap1\n      pop\n        /* \"#utility.yul\":14539:14632   */\n      swap2\n      swap1\n      pop\n      jump\t// out\n        /* \"#utility.yul\":14638:14745   */\n    tag_130:\n        /* \"#utility.yul\":14682:14690   */\n      0x00\n        /* \"#utility.yul\":14732:14737   */\n      dup3\n        /* \"#utility.yul\":14726:14730   */\n      dup3\n        /* \"#utility.yul\":14722:14738   */\n      shl\n        /* \"#utility.yul\":14701:14738   */\n      swap1\n      pop\n        /* \"#utility.yul\":14638:14745   */\n      swap3\n      swap2\n      pop\n      pop\n      jump\t// out\n        /* \"#utility.yul\":14751:15144   */\n    tag_131:\n        /* \"#utility.yul\":14820:14826   */\n      0x00\n        /* \"#utility.yul\":14870:14871   */\n      0x08\n        /* \"#utility.yul\":14858:14868   */\n      dup4\n        /* \"#utility.yul\":14854:14872   */\n      mul\n        /* \"#utility.yul\":14893:14990   */\n      tag_287\n        /* \"#utility.yul\":14923:14989   */\n      0xffffffffffffffffffffffffffffffffffffffffffffffffffffffffffffffff\n        /* \"#utility.yul\":14912:14921   */\n      dup3\n        /* \"#utility.yul\":14893:14990   */\n      tag_130\n      jump\t// in\n    tag_287:\n        /* \"#utility.yul\":15011:15050   */\n      tag_288\n        /* \"#utility.yul\":15041:15049   */\n      dup7\n        /* \"#utility.yul\":15030:15039   */\n      dup4\n        /* \"#utility.yul\":15011:15050   */\n      tag_130\n      jump\t// in\n    tag_288:\n        /* \"#utility.yul\":14999:15050   */\n      swap6\n      pop\n        /* \"#utility.yul\":15083:15087   */\n      dup1\n        /* \"#utility.yul\":15079:15088   */\n      not\n        /* \"#utility.yul\":15072:15077   */\n      dup5\n        /* \"#utility.yul\":15068:15089   */\n      and\n        /* \"#utility.yul\":15059:15089   */\n      swap4\n      pop\n        /* \"#utility.yul\":15132:15136   */\n      dup1\n        /* \"#utility.yul\":15122:15130   */\n      dup7\n        /* \"#utility.yul\":15118:15137   */\n      and\n        /* \"#utility.yul\":15111:15116   */\n      dup5\n        /* \"#utility.yul\":15108:15138   */\n      or\n        /* \"#utility.yul\":15098:15138   */\n      swap3\n      pop\n        /* \"#utility.yul\":14827:15144   */\n      pop\n      pop\n        /* \"#utility.yul\":14751:15144   */\n      swap4\n      swap3\n      pop\n      pop\n      pop\n      jump\t// out\n        /* \"#utility.yul\":15150:15210   */\n    tag_132:\n        /* \"#utility.yul\":15178:15181   */\n      0x00\n        /* \"#utility.yul\":15199:15204   */\n      dup2\n        /* \"#utility.yul\":15192:15204   */\n      swap1\n      pop\n        /* \"#utility.yul\":15150:15210   */\n      swap2\n      swap1\n      pop\n      jump\t// out\n        /* \"#utility.yul\":15216:15358   */\n    tag_133:\n        /* \"#utility.yul\":15266:15275   */\n      0x00\n        /* \"#utility.yul\":15299:15352   */\n      tag_291\n        /* \"#utility.yul\":15317:15351   */\n      tag_292\n        /* \"#utility.yul\":15326:15350   */\n      tag_293\n        /* \"#utility.yul\":15344:15349   */\n      dup5\n        /* \"#utility.yul\":15326:15350   */\n      tag_87\n      jump\t// in\n    tag_293:\n        /* \"#utility.yul\":15317:15351   */\n      tag_132\n      jump\t// in\n    tag_292:\n        /* \"#utility.yul\":15299:15352   */\n      tag_87\n      jump\t// in\n    tag_291:\n        /* \"#utility.yul\":15286:15352   */\n      swap1\n      pop\n        /* \"#utility.yul\":15216:15358   */\n      swap2\n      swap1\n      pop\n      jump\t// out\n        /* \"#utility.yul\":15364:15439   */\n    tag_134:\n        /* \"#utility.yul\":15407:15410   */\n      0x00\n        /* \"#utility.yul\":15428:15433   */\n      dup2\n        /* \"#utility.yul\":15421:15433   */\n      swap1\n      pop\n        /* \"#utility.yul\":15364:15439   */\n      swap2\n      swap1\n      pop\n      jump\t// out\n        /* \"#utility.yul\":15445:15714   */\n    tag_135:\n        /* \"#utility.yul\":15555:15594   */\n      tag_296\n        /* \"#utility.yul\":15586:15593   */\n      dup4\n        /* \"#utility.yul\":15555:15594   */\n      tag_133\n      jump\t// in\n    tag_296:\n        /* \"#utility.yul\":15616:15707   */\n      tag_297\n        /* \"#utility.yul\":15665:15706   */\n      tag_298\n        /* \"#utility.yul\":15689:15705   */\n      dup3\n        /* \"#utility.yul\":15665:15706   */\n      tag_134\n      jump\t// in\n    tag_298:\n        /* \"#utility.yul\":15657:15663   */\n      dup5\n        /* \"#utility.yul\":15650:15654   */\n      dup5\n        /* \"#utility.yul\":15644:15655   */\n      sload\n        /* \"#utility.yul\":15616:15707   */\n      tag_131\n      jump\t// in\n    tag_297:\n        /* \"#utility.yul\":15610:15614   */\n      dup3\n        /* \"#utility.yul\":15603:15708   */\n      sstore\n        /* \"#utility.yul\":15521:15714   */\n      pop\n        /* \"#utility.yul\":15445:15714   */\n      pop\n      pop\n      pop\n      jump\t// out\n        /* \"#utility.yul\":15720:15793   */\n    tag_136:\n        /* \"#utility.yul\":15765:15768   */\n      0x00\n        /* \"#utility.yul\":15720:15793   */\n      swap1\n      jump\t// out\n        /* \"#utility.yul\":15799:15988   */\n    tag_137:\n        /* \"#utility.yul\":15876:15908   */\n      tag_301\n      tag_136\n      jump\t// in\n    tag_301:\n        /* \"#utility.yul\":15917:15982   */\n      tag_302\n        /* \"#utility.yul\":15975:15981   */\n      dup2\n        /* \"#utility.yul\":15967:15973   */\n      dup5\n        /* \"#utility.yul\":15961:15965   */\n      dup5\n        /* \"#utility.yul\":15917:15982   */\n      tag_135\n      jump\t// in\n    tag_302:\n        /* \"#utility.yul\":15852:15988   */\n      pop\n        /* \"#utility.yul\":15799:15988   */\n      pop\n      pop\n      jump\t// out\n        /* \"#utility.yul\":15994:16180   */\n    tag_138:\n        /* \"#utility.yul\":16054:16174   */\n    tag_304:\n        /* \"#utility.yul\":16071:16074   */\n      dup2\n        /* \"#utility.yul\":16064:16069   */\n      dup2\n        /* \"#utility.yul\":16061:16075   */\n      lt\n        /* \"#utility.yul\":16054:16174   */\n      iszero\n      tag_306\n      jumpi\n        /* \"#utility.yul\":16125:16164   */\n      tag_307\n        /* \"#utility.yul\":16162:16163   */\n      0x00\n        /* \"#utility.yul\":16155:16160   */\n      dup3\n        /* \"#utility.yul\":16125:16164   */\n      tag_137\n      jump\t// in\n    tag_307:\n        /* \"#utility.yul\":16098:16099   */\n      0x01\n        /* \"#utility.yul\":16091:16096   */\n      dup2\n        /* \"#utility.yul\":16087:16100   */\n      add\n        /* \"#utility.yul\":16078:16100   */\n      swap1\n      pop\n        /* \"#utility.yul\":16054:16174   */\n      jump(tag_304)\n    tag_306:\n        /* \"#utility.yul\":15994:16180   */\n      pop\n      pop\n      jump\t// out\n        /* \"#utility.yul\":16186:16729   */\n    tag_139:\n        /* \"#utility.yul\":16287:16289   */\n      0x1f\n        /* \"#utility.yul\":16282:16285   */\n      dup3\n        /* \"#utility.yul\":16279:16290   */\n      gt\n        /* \"#utility.yul\":16276:16722   */\n      iszero\n      tag_309\n      jumpi\n        /* \"#utility.yul\":16321:16359   */\n      tag_310\n        /* \"#utility.yul\":16353:16358   */\n      dup2\n        /* \"#utility.yul\":16321:16359   */\n      tag_128\n      jump\t// in\n    tag_310:\n        /* \"#utility.yul\":16405:16434   */\n      tag_311\n        /* \"#utility.yul\":16423:16433   */\n      dup5\n        /* \"#utility.yul\":16405:16434   */\n      tag_129\n      jump\t// in\n    tag_311:\n        /* \"#utility.yul\":16395:16403   */\n      dup2\n        /* \"#utility.yul\":16391:16435   */\n      add\n        /* \"#utility.yul\":16588:16590   */\n      0x20\n        /* \"#utility.yul\":16576:16586   */\n      dup6\n        /* \"#utility.yul\":16573:16591   */\n      lt\n        /* \"#utility.yul\":16570:16619   */\n      iszero\n      tag_312\n      jumpi\n        /* \"#utility.yul\":16609:16617   */\n      dup2\n        /* \"#utility.yul\":16594:16617   */\n      swap1\n      pop\n        /* \"#utility.yul\":16570:16619   */\n    tag_312:\n        /* \"#utility.yul\":16632:16712   */\n      tag_313\n        /* \"#utility.yul\":16688:16710   */\n      tag_314\n        /* \"#utility.yul\":16706:16709   */\n      dup6\n        /* \"#utility.yul\":16688:16710   */\n      tag_129\n      jump\t// in\n    tag_314:\n        /* \"#utility.yul\":16678:16686   */\n      dup4\n        /* \"#utility.yul\":16674:16711   */\n      add\n        /* \"#utility.yul\":16661:16672   */\n      dup3\n        /* \"#utility.yul\":16632:16712   */\n      tag_138\n      jump\t// in\n    tag_313:\n        /* \"#utility.yul\":16291:16722   */\n      pop\n      pop\n        /* \"#utility.yul\":16276:16722   */\n    tag_309:\n        /* \"#utility.yul\":16186:16729   */\n      pop\n      pop\n      pop\n      jump\t// out\n        /* \"#utility.yul\":16735:16852   */\n    tag_140:\n        /* \"#utility.yul\":16789:16797   */\n      0x00\n        /* \"#utility.yul\":16839:16844   */\n      dup3\n        /* \"#utility.yul\":16833:16837   */\n      dup3\n        /* \"#utility.yul\":16829:16845   */\n      shr\n        /* \"#utility.yul\":16808:16845   */\n      swap1\n      pop\n        /* \"#utility.yul\":16735:16852   */\n      swap3\n      swap2\n      pop\n      pop\n      jump\t// out\n        /* \"#utility.yul\":16858:17027   */\n    tag_141:\n        /* \"#utility.yul\":16902:16908   */\n      0x00\n        /* \"#utility.yul\":16935:16986   */\n      tag_317\n        /* \"#utility.yul\":16983:16984   */\n      0x00\n        /* \"#utility.yul\":16979:16985   */\n      not\n        /* \"#utility.yul\":16971:16976   */\n      dup5\n        /* \"#utility.yul\":16968:16969   */\n      0x08\n        /* \"#utility.yul\":16964:16977   */\n      mul\n        /* \"#utility.yul\":16935:16986   */\n      tag_140\n      jump\t// in\n    tag_317:\n        /* \"#utility.yul\":16931:16987   */\n      not\n        /* \"#utility.yul\":17016:17020   */\n      dup1\n        /* \"#utility.yul\":17010:17014   */\n      dup4\n        /* \"#utility.yul\":17006:17021   */\n      and\n        /* \"#utility.yul\":16996:17021   */\n      swap2\n      pop\n        /* \"#utility.yul\":16909:17027   */\n      pop\n        /* \"#utility.yul\":16858:17027   */\n      swap3\n      swap2\n      pop\n      pop\n      jump\t// out\n        /* \"#utility.yul\":17032:17327   */\n    tag_142:\n        /* \"#utility.yul\":17108:17112   */\n      0x00\n        /* \"#utility.yul\":17254:17283   */\n      tag_319\n        /* \"#utility.yul\":17279:17282   */\n      dup4\n        /* \"#utility.yul\":17273:17277   */\n      dup4\n        /* \"#utility.yul\":17254:17283   */\n      tag_141\n      jump\t// in\n    tag_319:\n        /* \"#utility.yul\":17246:17283   */\n      swap2\n      pop\n        /* \"#utility.yul\":17316:17319   */\n      dup3\n        /* \"#utility.yul\":17313:17314   */\n      0x02\n        /* \"#utility.yul\":17309:17320   */\n      mul\n        /* \"#utility.yul\":17303:17307   */\n      dup3\n        /* \"#utility.yul\":17300:17321   */\n      or\n        /* \"#utility.yul\":17292:17321   */\n      swap1\n      pop\n        /* \"#utility.yul\":17032:17327   */\n      swap3\n      swap2\n      pop\n      pop\n      jump\t// out\n        /* \"#utility.yul\":17332:18727   */\n    tag_67:\n        /* \"#utility.yul\":17449:17486   */\n      tag_321\n        /* \"#utility.yul\":17482:17485   */\n      dup3\n        /* \"#utility.yul\":17449:17486   */\n      tag_93\n      jump\t// in\n    tag_321:\n        /* \"#utility.yul\":17551:17569   */\n      0xffffffffffffffff\n        /* \"#utility.yul\":17543:17549   */\n      dup2\n        /* \"#utility.yul\":17540:17570   */\n      gt\n        /* \"#utility.yul\":17537:17593   */\n      iszero\n      tag_322\n      jumpi\n        /* \"#utility.yul\":17573:17591   */\n      tag_323\n      tag_112\n      jump\t// in\n    tag_323:\n        /* \"#utility.yul\":17537:17593   */\n    tag_322:\n        /* \"#utility.yul\":17617:17655   */\n      tag_324\n        /* \"#utility.yul\":17649:17653   */\n      dup3\n        /* \"#utility.yul\":17643:17654   */\n      sload\n        /* \"#utility.yul\":17617:17655   */\n      tag_34\n      jump\t// in\n    tag_324:\n        /* \"#utility.yul\":17702:17769   */\n      tag_325\n        /* \"#utility.yul\":17762:17768   */\n      dup3\n        /* \"#utility.yul\":17754:17760   */\n      dup3\n        /* \"#utility.yul\":17748:17752   */\n      dup6\n        /* \"#utility.yul\":17702:17769   */\n      tag_139\n      jump\t// in\n    tag_325:\n        /* \"#utility.yul\":17796:17797   */\n      0x00\n        /* \"#utility.yul\":17820:17824   */\n      0x20\n        /* \"#utility.yul\":17807:17824   */\n      swap1\n      pop\n        /* \"#utility.yul\":17852:17854   */\n      0x1f\n        /* \"#utility.yul\":17844:17850   */\n      dup4\n        /* \"#utility.yul\":17841:17855   */\n      gt\n        /* \"#utility.yul\":17869:17870   */\n      0x01\n        /* \"#utility.yul\":17864:18482   */\n      dup2\n      eq\n      tag_327\n      jumpi\n        /* \"#utility.yul\":18526:18527   */\n      0x00\n        /* \"#utility.yul\":18543:18549   */\n      dup5\n        /* \"#utility.yul\":18540:18617   */\n      iszero\n      tag_328\n      jumpi\n        /* \"#utility.yul\":18592:18601   */\n      dup3\n        /* \"#utility.yul\":18587:18590   */\n      dup8\n        /* \"#utility.yul\":18583:18602   */\n      add\n        /* \"#utility.yul\":18577:18603   */\n      mload\n        /* \"#utility.yul\":18568:18603   */\n      swap1\n      pop\n        /* \"#utility.yul\":18540:18617   */\n    tag_328:\n        /* \"#utility.yul\":18643:18710   */\n      tag_329\n        /* \"#utility.yul\":18703:18709   */\n      dup6\n        /* \"#utility.yul\":18696:18701   */\n      dup3\n        /* \"#utility.yul\":18643:18710   */\n      tag_142\n      jump\t// in\n    tag_329:\n        /* \"#utility.yul\":18637:18641   */\n      dup7\n        /* \"#utility.yul\":18630:18711   */\n      sstore\n        /* \"#utility.yul\":18499:18721   */\n      pop\n        /* \"#utility.yul\":17834:18721   */\n      jump(tag_326)\n        /* \"#utility.yul\":17864:18482   */\n    tag_327:\n        /* \"#utility.yul\":17916:17920   */\n      0x1f\n        /* \"#utility.yul\":17912:17921   */\n      not\n        /* \"#utility.yul\":17904:17910   */\n      dup5\n        /* \"#utility.yul\":17900:17922   */\n      and\n        /* \"#utility.yul\":17950:17987   */\n      tag_330\n        /* \"#utility.yul\":17982:17986   */\n      dup7\n        /* \"#utility.yul\":17950:17987   */\n      tag_128\n      jump\t// in\n    tag_330:\n        /* \"#utility.yul\":18009:18010   */\n      0x00\n        /* \"#utility.yul\":18023:18231   */\n    tag_331:\n        /* \"#utility.yul\":18037:18044   */\n      dup3\n        /* \"#utility.yul\":18034:18035   */\n      dup2\n        /* \"#utility.yul\":18031:18045   */\n      lt\n        /* \"#utility.yul\":18023:18231   */\n      iszero\n      tag_333\n      jumpi\n        /* \"#utility.yul\":18116:18125   */\n      dup5\n        /* \"#utility.yul\":18111:18114   */\n      dup10\n        /* \"#utility.yul\":18107:18126   */\n      add\n        /* \"#utility.yul\":18101:18127   */\n      mload\n        /* \"#utility.yul\":18093:18099   */\n      dup3\n        /* \"#utility.yul\":18086:18128   */\n      sstore\n        /* \"#utility.yul\":18167:18168   */\n      0x01\n        /* \"#utility.yul\":18159:18165   */\n      dup3\n        /* \"#utility.yul\":18155:18169   */\n      add\n        /* \"#utility.yul\":18145:18169   */\n      swap2\n      pop\n        /* \"#utility.yul\":18214:18216   */\n      0x20\n        /* \"#utility.yul\":18203:18212   */\n      dup6\n        /* \"#utility.yul\":18199:18217   */\n      add\n        /* \"#utility.yul\":18186:18217   */\n      swap5\n      pop\n        /* \"#utility.yul\":18060:18064   */\n      0x20\n        /* \"#utility.yul\":18057:18058   */\n      dup2\n        /* \"#utility.yul\":18053:18065   */\n      add\n        /* \"#utility.yul\":18048:18065   */\n      swap1\n      pop\n        /* \"#utility.yul\":18023:18231   */\n      jump(tag_331)\n    tag_333:\n        /* \"#utility.yul\":18259:18265   */\n      dup7\n        /* \"#utility.yul\":18250:18257   */\n      dup4\n        /* \"#utility.yul\":18247:18266   */\n      lt\n        /* \"#utility.yul\":18244:18423   */\n      iszero\n      tag_334\n      jumpi\n        /* \"#utility.yul\":18317:18326   */\n      dup5\n        /* \"#utility.yul\":18312:18315   */\n      dup10\n        /* \"#utility.yul\":18308:18327   */\n      add\n        /* \"#utility.yul\":18302:18328   */\n      mload\n        /* \"#utility.yul\":18360:18408   */\n      tag_335\n        /* \"#utility.yul\":18402:18406   */\n      0x1f\n        /* \"#utility.yul\":18394:18400   */\n      dup10\n        /* \"#utility.yul\":18390:18407   */\n      and\n        /* \"#utility.yul\":18379:18388   */\n      dup3\n        /* \"#utility.yul\":18360:18408   */\n      tag_141\n      jump\t// in\n    tag_335:\n        /* \"#utility.yul\":18352:18358   */\n      dup4\n        /* \"#utility.yul\":18345:18409   */\n      sstore\n        /* \"#utility.yul\":18267:18423   */\n      pop\n        /* \"#utility.yul\":18244:18423   */\n    tag_334:\n        /* \"#utility.yul\":18469:18470   */\n      0x01\n        /* \"#utility.yul\":18465:18466   */\n      0x02\n        /* \"#utility.yul\":18457:18463   */\n      dup9\n        /* \"#utility.yul\":18453:18467   */\n      mul\n        /* \"#utility.yul\":18449:18471   */\n      add\n        /* \"#utility.yul\":18443:18447   */\n      dup9\n        /* \"#utility.yul\":18436:18472   */\n      sstore\n        /* \"#utility.yul\":17871:18482   */\n      pop\n      pop\n      pop\n        /* \"#utility.yul\":17834:18721   */\n    tag_326:\n      pop\n        /* \"#utility.yul\":17424:18727   */\n      pop\n      pop\n      pop\n        /* \"#utility.yul\":17332:18727   */\n      pop\n      pop\n      jump\t// out\n        /* \"#utility.yul\":18733:19156   */\n    tag_70:\n        /* \"#utility.yul\":18874:18878   */\n      0x00\n        /* \"#utility.yul\":18912:18914   */\n      0x40\n        /* \"#utility.yul\":18901:18910   */\n      dup3\n        /* \"#utility.yul\":18897:18915   */\n      add\n        /* \"#utility.yul\":18889:18915   */\n      swap1\n      pop\n        /* \"#utility.yul\":18961:18970   */\n      dup2\n        /* \"#utility.yul\":18955:18959   */\n      dup2\n        /* \"#utility.yul\":18951:18971   */\n      sub\n        /* \"#utility.yul\":18947:18948   */\n      0x00\n        /* \"#utility.yul\":18936:18945   */\n      dup4\n        /* \"#utility.yul\":18932:18949   */\n      add\n        /* \"#utility.yul\":18925:18972   */\n      mstore\n        /* \"#utility.yul\":18989:19067   */\n      tag_337\n        /* \"#utility.yul\":19062:19066   */\n      dup2\n        /* \"#utility.yul\":19053:19059   */\n      dup6\n        /* \"#utility.yul\":18989:19067   */\n      tag_97\n      jump\t// in\n    tag_337:\n        /* \"#utility.yul\":18981:19067   */\n      swap1\n      pop\n        /* \"#utility.yul\":19077:19149   */\n      tag_338\n        /* \"#utility.yul\":19145:19147   */\n      0x20\n        /* \"#utility.yul\":19134:19143   */\n      dup4\n        /* \"#utility.yul\":19130:19148   */\n      add\n        /* \"#utility.yul\":19121:19127   */\n      dup5\n        /* \"#utility.yul\":19077:19149   */\n      tag_98\n      jump\t// in\n    tag_338:\n        /* \"#utility.yul\":18733:19156   */\n      swap4\n      swap3\n      pop\n      pop\n      pop\n      jump\t// out\n        /* \"#utility.yul\":19162:19327   */\n    tag_143:\n        /* \"#utility.yul\":19302:19319   */\n      0x496e76616c696420706f73742049440000000000000000000000000000000000\n        /* \"#utility.yul\":19298:19299   */\n      0x00\n        /* \"#utility.yul\":19290:19296   */\n      dup3\n        /* \"#utility.yul\":19286:19300   */\n      add\n        /* \"#utility.yul\":19279:19320   */\n      mstore\n        /* \"#utility.yul\":19162:19327   */\n      pop\n      jump\t// out\n        /* \"#utility.yul\":19333:19699   */\n    tag_144:\n        /* \"#utility.yul\":19475:19478   */\n      0x00\n        /* \"#utility.yul\":19496:19563   */\n      tag_341\n        /* \"#utility.yul\":19560:19562   */\n      0x0f\n        /* \"#utility.yul\":19555:19558   */\n      dup4\n        /* \"#utility.yul\":19496:19563   */\n      tag_94\n      jump\t// in\n    tag_341:\n        /* \"#utility.yul\":19489:19563   */\n      swap2\n      pop\n        /* \"#utility.yul\":19572:19665   */\n      tag_342\n        /* \"#utility.yul\":19661:19664   */\n      dup3\n        /* \"#utility.yul\":19572:19665   */\n      tag_143\n      jump\t// in\n    tag_342:\n        /* \"#utility.yul\":19690:19692   */\n      0x20\n        /* \"#utility.yul\":19685:19688   */\n      dup3\n        /* \"#utility.yul\":19681:19693   */\n      add\n        /* \"#utility.yul\":19674:19693   */\n      swap1\n      pop\n        /* \"#utility.yul\":19333:19699   */\n      swap2\n      swap1\n      pop\n      jump\t// out\n        /* \"#utility.yul\":19705:20124   */\n    tag_74:\n        /* \"#utility.yul\":19871:19875   */\n      0x00\n        /* \"#utility.yul\":19909:19911   */\n      0x20\n        /* \"#utility.yul\":19898:19907   */\n      dup3\n        /* \"#utility.yul\":19894:19912   */\n      add\n        /* \"#utility.yul\":19886:19912   */\n      swap1\n      pop\n        /* \"#utility.yul\":19958:19967   */\n      dup2\n        /* \"#utility.yul\":19952:19956   */\n      dup2\n        /* \"#utility.yul\":19948:19968   */\n      sub\n        /* \"#utility.yul\":19944:19945   */\n      0x00\n        /* \"#utility.yul\":19933:19942   */\n      dup4\n        /* \"#utility.yul\":19929:19946   */\n      add\n        /* \"#utility.yul\":19922:19969   */\n      mstore\n        /* \"#utility.yul\":19986:20117   */\n      tag_344\n        /* \"#utility.yul\":20112:20116   */\n      dup2\n        /* \"#utility.yul\":19986:20117   */\n      tag_144\n      jump\t// in\n    tag_344:\n        /* \"#utility.yul\":19978:20117   */\n      swap1\n      pop\n        /* \"#utility.yul\":19705:20124   */\n      swap2\n      swap1\n      pop\n      jump\t// out\n        /* \"#utility.yul\":20130:20312   */\n    tag_145:\n        /* \"#utility.yul\":20270:20304   */\n      0x596f75206861766520616c7265616479206c696b6564207468697320706f7374\n        /* \"#utility.yul\":20266:20267   */\n      0x00\n        /* \"#utility.yul\":20258:20264   */\n      dup3\n        /* \"#utility.yul\":20254:20268   */\n      add\n        /* \"#utility.yul\":20247:20305   */\n      mstore\n        /* \"#utility.yul\":20130:20312   */\n      pop\n      jump\t// out\n        /* \"#utility.yul\":20318:20684   */\n    tag_146:\n        /* \"#utility.yul\":20460:20463   */\n      0x00\n        /* \"#utility.yul\":20481:20548   */\n      tag_347\n        /* \"#utility.yul\":20545:20547   */\n      0x20\n        /* \"#utility.yul\":20540:20543   */\n      dup4\n        /* \"#utility.yul\":20481:20548   */\n      tag_94\n      jump\t// in\n    tag_347:\n        /* \"#utility.yul\":20474:20548   */\n      swap2\n      pop\n        /* \"#utility.yul\":20557:20650   */\n      tag_348\n        /* \"#utility.yul\":20646:20649   */\n      dup3\n        /* \"#utility.yul\":20557:20650   */\n      tag_145\n      jump\t// in\n    tag_348:\n        /* \"#utility.yul\":20675:20677   */\n      0x20\n        /* \"#utility.yul\":20670:20673   */\n      dup3\n        /* \"#utility.yul\":20666:20678   */\n      add\n        /* \"#utility.yul\":20659:20678   */\n      swap1\n      pop\n        /* \"#utility.yul\":20318:20684   */\n      swap2\n      swap1\n      pop\n      jump\t// out\n        /* \"#utility.yul\":20690:21109   */\n    tag_77:\n        /* \"#utility.yul\":20856:20860   */\n      0x00\n        /* \"#utility.yul\":20894:20896   */\n      0x20\n        /* \"#utility.yul\":20883:20892   */\n      dup3\n        /* \"#utility.yul\":20879:20897   */\n      add\n        /* \"#utility.yul\":20871:20897   */\n      swap1\n      pop\n        /* \"#utility.yul\":20943:20952   */\n      dup2\n        /* \"#utility.yul\":20937:20941   */\n      dup2\n        /* \"#utility.yul\":20933:20953   */\n      sub\n        /* \"#utility.yul\":20929:20930   */\n      0x00\n        /* \"#utility.yul\":20918:20927   */\n      dup4\n        /* \"#utility.yul\":20914:20931   */\n      add\n        /* \"#utility.yul\":20907:20954   */\n      mstore\n        /* \"#utility.yul\":20971:21102   */\n      tag_350\n        /* \"#utility.yul\":21097:21101   */\n      dup2\n        /* \"#utility.yul\":20971:21102   */\n      tag_146\n      jump\t// in\n    tag_350:\n        /* \"#utility.yul\":20963:21102   */\n      swap1\n      pop\n        /* \"#utility.yul\":20690:21109   */\n      swap2\n      swap1\n      pop\n      jump\t// out\n        /* \"#utility.yul\":21115:21295   */\n    tag_80:\n        /* \"#utility.yul\":21163:21240   */\n      0x4e487b7100000000000000000000000000000000000000000000000000000000\n        /* \"#utility.yul\":21160:21161   */\n      0x00\n        /* \"#utility.yul\":21153:21241   */\n      mstore\n        /* \"#utility.yul\":21260:21264   */\n      0x32\n        /* \"#utility.yul\":21257:21258   */\n      0x04\n        /* \"#utility.yul\":21250:21265   */\n      mstore\n        /* \"#utility.yul\":21284:21288   */\n      0x24\n        /* \"#utility.yul\":21281:21282   */\n      0x00\n        /* \"#utility.yul\":21274:21289   */\n      revert\n        /* \"#utility.yul\":21301:21481   */\n    tag_147:\n        /* \"#utility.yul\":21349:21426   */\n      0x4e487b7100000000000000000000000000000000000000000000000000000000\n        /* \"#utility.yul\":21346:21347   */\n      0x00\n        /* \"#utility.yul\":21339:21427   */\n      mstore\n        /* \"#utility.yul\":21446:21450   */\n      0x11\n        /* \"#utility.yul\":21443:21444   */\n      0x04\n        /* \"#utility.yul\":21436:21451   */\n      mstore\n        /* \"#utility.yul\":21470:21474   */\n      0x24\n        /* \"#utility.yul\":21467:21468   */\n      0x00\n        /* \"#utility.yul\":21460:21475   */\n      revert\n        /* \"#utility.yul\":21487:21720   */\n    tag_83:\n        /* \"#utility.yul\":21526:21529   */\n      0x00\n        /* \"#utility.yul\":21549:21573   */\n      tag_354\n        /* \"#utility.yul\":21567:21572   */\n      dup3\n        /* \"#utility.yul\":21549:21573   */\n      tag_87\n      jump\t// in\n    tag_354:\n        /* \"#utility.yul\":21540:21573   */\n      swap2\n      pop\n        /* \"#utility.yul\":21595:21661   */\n      0xffffffffffffffffffffffffffffffffffffffffffffffffffffffffffffffff\n        /* \"#utility.yul\":21588:21593   */\n      dup3\n        /* \"#utility.yul\":21585:21662   */\n      sub\n        /* \"#utility.yul\":21582:21685   */\n      tag_355\n      jumpi\n        /* \"#utility.yul\":21665:21683   */\n      tag_356\n      tag_147\n      jump\t// in\n    tag_356:\n        /* \"#utility.yul\":21582:21685   */\n    tag_355:\n        /* \"#utility.yul\":21712:21713   */\n      0x01\n        /* \"#utility.yul\":21705:21710   */\n      dup3\n        /* \"#utility.yul\":21701:21714   */\n      add\n        /* \"#utility.yul\":21694:21714   */\n      swap1\n      pop\n        /* \"#utility.yul\":21487:21720   */\n      swap2\n      swap1\n      pop\n      jump\t// out\n\n    auxdata: 0xa26469706673582212209324fc4d8261d2a14049735bf34f5daaf8c2006c1f1ad367726a1b8ed12abeb764736f6c634300081a0033\n}\n",
				"bytecode": {
					"linkReferences": {},
					"object": "6080604052348015600e575f80fd5b506113108061001c5f395ff3fe608060405234801561000f575f80fd5b5060043610610055575f3560e01c80630b1e7f8314610059578063305611001461008d578063392338f5146100ab578063725009d3146100c7578063ca1f0cad146100e3575b5f80fd5b610073600480360381019061006e9190610862565b610113565b60405161008495949392919061094b565b60405180910390f35b61009561027e565b6040516100a29190610b45565b60405180910390f35b6100c560048036038101906100c09190610c91565b610461565b005b6100e160048036038101906100dc9190610862565b610634565b005b6100fd60048036038101906100f89190610d31565b6107f4565b60405161010a9190610d89565b60405180910390f35b5f8181548110610121575f80fd5b905f5260205f2090600502015f91509050805f015f9054906101000a900473ffffffffffffffffffffffffffffffffffffffff169080600101805461016590610dcf565b80601f016020809104026020016040519081016040528092919081815260200182805461019190610dcf565b80156101dc5780601f106101b3576101008083540402835291602001916101dc565b820191905f5260205f20905b8154815290600101906020018083116101bf57829003601f168201915b5050505050908060020180546101f190610dcf565b80601f016020809104026020016040519081016040528092919081815260200182805461021d90610dcf565b80156102685780601f1061023f57610100808354040283529160200191610268565b820191905f5260205f20905b81548152906001019060200180831161024b57829003601f168201915b5050505050908060030154908060040154905085565b60605f805480602002602001604051908101604052809291908181526020015f905b82821015610458578382905f5260205f2090600502016040518060a00160405290815f82015f9054906101000a900473ffffffffffffffffffffffffffffffffffffffff1673ffffffffffffffffffffffffffffffffffffffff1673ffffffffffffffffffffffffffffffffffffffff16815260200160018201805461032590610dcf565b80601f016020809104026020016040519081016040528092919081815260200182805461035190610dcf565b801561039c5780601f106103735761010080835404028352916020019161039c565b820191905f5260205f20905b81548152906001019060200180831161037f57829003601f168201915b505050505081526020016002820180546103b590610dcf565b80601f01602080910402602001604051908101604052809291908181526020018280546103e190610dcf565b801561042c5780601f106104035761010080835404028352916020019161042c565b820191905f5260205f20905b81548152906001019060200180831161040f57829003601f168201915b5050505050815260200160038201548152602001600482015481525050815260200190600101906102a0565b50505050905090565b5f8251116104a4576040517f08c379a000000000000000000000000000000000000000000000000000000000815260040161049b90610e49565b60405180910390fd5b5f8151116104e7576040517f08c379a00000000000000000000000000000000000000000000000000000000081526004016104de90610eb1565b60405180910390fd5b5f6040518060a001604052803373ffffffffffffffffffffffffffffffffffffffff1681526020018481526020018381526020014281526020015f81525090505f808054905090505f82908060018154018082558091505060019003905f5260205f2090600502015f909190919091505f820151815f015f6101000a81548173ffffffffffffffffffffffffffffffffffffffff021916908373ffffffffffffffffffffffffffffffffffffffff16021790555060208201518160010190816105b0919061106c565b5060408201518160020190816105c6919061106c565b50606082015181600301556080820151816004015550503373ffffffffffffffffffffffffffffffffffffffff16817f285db98a4632176385795ddf0d2b67cef1a21f47eb2f5d06f786ab6b5147e200864260405161062692919061113b565b60405180910390a350505050565b5f80549050811061067a576040517f08c379a0000000000000000000000000000000000000000000000000000000008152600401610671906111b3565b60405180910390fd5b60015f8281526020019081526020015f205f3373ffffffffffffffffffffffffffffffffffffffff1673ffffffffffffffffffffffffffffffffffffffff1681526020019081526020015f205f9054906101000a900460ff1615610713576040517f08c379a000000000000000000000000000000000000000000000000000000000815260040161070a9061121b565b60405180910390fd5b6001805f8381526020019081526020015f205f3373ffffffffffffffffffffffffffffffffffffffff1673ffffffffffffffffffffffffffffffffffffffff1681526020019081526020015f205f6101000a81548160ff0219169083151502179055505f818154811061078957610788611239565b5b905f5260205f2090600502016004015f8154809291906107a890611293565b91905055503373ffffffffffffffffffffffffffffffffffffffff16817fcf765d6f163c9b0d832e2a94f4c8e9bffd32a2c3ca5fdbb8cc67b5fe1441f41360405160405180910390a350565b6001602052815f5260405f20602052805f5260405f205f915091509054906101000a900460ff1681565b5f604051905090565b5f80fd5b5f80fd5b5f819050919050565b6108418161082f565b811461084b575f80fd5b50565b5f8135905061085c81610838565b92915050565b5f6020828403121561087757610876610827565b5b5f6108848482850161084e565b91505092915050565b5f73ffffffffffffffffffffffffffffffffffffffff82169050919050565b5f6108b68261088d565b9050919050565b6108c6816108ac565b82525050565b5f81519050919050565b5f82825260208201905092915050565b8281835e5f83830152505050565b5f601f19601f8301169050919050565b5f61090e826108cc565b61091881856108d6565b93506109288185602086016108e6565b610931816108f4565b840191505092915050565b6109458161082f565b82525050565b5f60a08201905061095e5f8301886108bd565b81810360208301526109708187610904565b905081810360408301526109848186610904565b9050610993606083018561093c565b6109a0608083018461093c565b9695505050505050565b5f81519050919050565b5f82825260208201905092915050565b5f819050602082019050919050565b6109dc816108ac565b82525050565b5f82825260208201905092915050565b5f6109fc826108cc565b610a0681856109e2565b9350610a168185602086016108e6565b610a1f816108f4565b840191505092915050565b610a338161082f565b82525050565b5f60a083015f830151610a4e5f8601826109d3565b5060208301518482036020860152610a6682826109f2565b91505060408301518482036040860152610a8082826109f2565b9150506060830151610a956060860182610a2a565b506080830151610aa86080860182610a2a565b508091505092915050565b5f610abe8383610a39565b905092915050565b5f602082019050919050565b5f610adc826109aa565b610ae681856109b4565b935083602082028501610af8856109c4565b805f5b85811015610b335784840389528151610b148582610ab3565b9450610b1f83610ac6565b925060208a01995050600181019050610afb565b50829750879550505050505092915050565b5f6020820190508181035f830152610b5d8184610ad2565b905092915050565b5f80fd5b5f80fd5b7f4e487b71000000000000000000000000000000000000000000000000000000005f52604160045260245ffd5b610ba3826108f4565b810181811067ffffffffffffffff82111715610bc257610bc1610b6d565b5b80604052505050565b5f610bd461081e565b9050610be08282610b9a565b919050565b5f67ffffffffffffffff821115610bff57610bfe610b6d565b5b610c08826108f4565b9050602081019050919050565b828183375f83830152505050565b5f610c35610c3084610be5565b610bcb565b905082815260208101848484011115610c5157610c50610b69565b5b610c5c848285610c15565b509392505050565b5f82601f830112610c7857610c77610b65565b5b8135610c88848260208601610c23565b91505092915050565b5f8060408385031215610ca757610ca6610827565b5b5f83013567ffffffffffffffff811115610cc457610cc361082b565b5b610cd085828601610c64565b925050602083013567ffffffffffffffff811115610cf157610cf061082b565b5b610cfd85828601610c64565b9150509250929050565b610d10816108ac565b8114610d1a575f80fd5b50565b5f81359050610d2b81610d07565b92915050565b5f8060408385031215610d4757610d46610827565b5b5f610d548582860161084e565b9250506020610d6585828601610d1d565b9150509250929050565b5f8115159050919050565b610d8381610d6f565b82525050565b5f602082019050610d9c5f830184610d7a565b92915050565b7f4e487b71000000000000000000000000000000000000000000000000000000005f52602260045260245ffd5b5f6002820490506001821680610de657607f821691505b602082108103610df957610df8610da2565b5b50919050565b7f5469746c652063616e6e6f7420626520656d70747900000000000000000000005f82015250565b5f610e336015836108d6565b9150610e3e82610dff565b602082019050919050565b5f6020820190508181035f830152610e6081610e27565b9050919050565b7f436f6e74656e742063616e6e6f7420626520656d7074790000000000000000005f82015250565b5f610e9b6017836108d6565b9150610ea682610e67565b602082019050919050565b5f6020820190508181035f830152610ec881610e8f565b9050919050565b5f819050815f5260205f209050919050565b5f6020601f8301049050919050565b5f82821b905092915050565b5f60088302610f2b7fffffffffffffffffffffffffffffffffffffffffffffffffffffffffffffffff82610ef0565b610f358683610ef0565b95508019841693508086168417925050509392505050565b5f819050919050565b5f610f70610f6b610f668461082f565b610f4d565b61082f565b9050919050565b5f819050919050565b610f8983610f56565b610f9d610f9582610f77565b848454610efc565b825550505050565b5f90565b610fb1610fa5565b610fbc818484610f80565b505050565b5b81811015610fdf57610fd45f82610fa9565b600181019050610fc2565b5050565b601f82111561102457610ff581610ecf565b610ffe84610ee1565b8101602085101561100d578190505b61102161101985610ee1565b830182610fc1565b50505b505050565b5f82821c905092915050565b5f6110445f1984600802611029565b1980831691505092915050565b5f61105c8383611035565b9150826002028217905092915050565b611075826108cc565b67ffffffffffffffff81111561108e5761108d610b6d565b5b6110988254610dcf565b6110a3828285610fe3565b5f60209050601f8311600181146110d4575f84156110c2578287015190505b6110cc8582611051565b865550611133565b601f1984166110e286610ecf565b5f5b82811015611109578489015182556001820191506020850194506020810190506110e4565b868310156111265784890151611122601f891682611035565b8355505b6001600288020188555050505b505050505050565b5f6040820190508181035f8301526111538185610904565b9050611162602083018461093c565b9392505050565b7f496e76616c696420706f737420494400000000000000000000000000000000005f82015250565b5f61119d600f836108d6565b91506111a882611169565b602082019050919050565b5f6020820190508181035f8301526111ca81611191565b9050919050565b7f596f75206861766520616c7265616479206c696b6564207468697320706f73745f82015250565b5f6112056020836108d6565b9150611210826111d1565b602082019050919050565b5f6020820190508181035f830152611232816111f9565b9050919050565b7f4e487b71000000000000000000000000000000000000000000000000000000005f52603260045260245ffd5b7f4e487b71000000000000000000000000000000000000000000000000000000005f52601160045260245ffd5b5f61129d8261082f565b91507fffffffffffffffffffffffffffffffffffffffffffffffffffffffffffffffff82036112cf576112ce611266565b5b60018201905091905056fea26469706673582212209324fc4d8261d2a14049735bf34f5daaf8c2006c1f1ad367726a1b8ed12abeb764736f6c634300081a0033",
					"opcodes": "PUSH1 0x80 PUSH1 0x40 MSTORE CALLVALUE DUP1 ISZERO PUSH1 0xE JUMPI PUSH0 DUP1 REVERT JUMPDEST POP PUSH2 0x1310 DUP1 PUSH2 0x1C PUSH0 CODECOPY PUSH0 RETURN INVALID PUSH1 0x80 PUSH1 0x40 MSTORE CALLVALUE DUP1 ISZERO PUSH2 0xF JUMPI PUSH0 DUP1 REVERT JUMPDEST POP PUSH1 0x4 CALLDATASIZE LT PUSH2 0x55 JUMPI PUSH0 CALLDATALOAD PUSH1 0xE0 SHR DUP1 PUSH4 0xB1E7F83 EQ PUSH2 0x59 JUMPI DUP1 PUSH4 0x30561100 EQ PUSH2 0x8D JUMPI DUP1 PUSH4 0x392338F5 EQ PUSH2 0xAB JUMPI DUP1 PUSH4 0x725009D3 EQ PUSH2 0xC7 JUMPI DUP1 PUSH4 0xCA1F0CAD EQ PUSH2 0xE3 JUMPI JUMPDEST PUSH0 DUP1 REVERT JUMPDEST PUSH2 0x73 PUSH1 0x4 DUP1 CALLDATASIZE SUB DUP2 ADD SWAP1 PUSH2 0x6E SWAP2 SWAP1 PUSH2 0x862 JUMP JUMPDEST PUSH2 0x113 JUMP JUMPDEST PUSH1 0x40 MLOAD PUSH2 0x84 SWAP6 SWAP5 SWAP4 SWAP3 SWAP2 SWAP1 PUSH2 0x94B JUMP JUMPDEST PUSH1 0x40 MLOAD DUP1 SWAP2 SUB SWAP1 RETURN JUMPDEST PUSH2 0x95 PUSH2 0x27E JUMP JUMPDEST PUSH1 0x40 MLOAD PUSH2 0xA2 SWAP2 SWAP1 PUSH2 0xB45 JUMP JUMPDEST PUSH1 0x40 MLOAD DUP1 SWAP2 SUB SWAP1 RETURN JUMPDEST PUSH2 0xC5 PUSH1 0x4 DUP1 CALLDATASIZE SUB DUP2 ADD SWAP1 PUSH2 0xC0 SWAP2 SWAP1 PUSH2 0xC91 JUMP JUMPDEST PUSH2 0x461 JUMP JUMPDEST STOP JUMPDEST PUSH2 0xE1 PUSH1 0x4 DUP1 CALLDATASIZE SUB DUP2 ADD SWAP1 PUSH2 0xDC SWAP2 SWAP1 PUSH2 0x862 JUMP JUMPDEST PUSH2 0x634 JUMP JUMPDEST STOP JUMPDEST PUSH2 0xFD PUSH1 0x4 DUP1 CALLDATASIZE SUB DUP2 ADD SWAP1 PUSH2 0xF8 SWAP2 SWAP1 PUSH2 0xD31 JUMP JUMPDEST PUSH2 0x7F4 JUMP JUMPDEST PUSH1 0x40 MLOAD PUSH2 0x10A SWAP2 SWAP1 PUSH2 0xD89 JUMP JUMPDEST PUSH1 0x40 MLOAD DUP1 SWAP2 SUB SWAP1 RETURN JUMPDEST PUSH0 DUP2 DUP2 SLOAD DUP2 LT PUSH2 0x121 JUMPI PUSH0 DUP1 REVERT JUMPDEST SWAP1 PUSH0 MSTORE PUSH1 0x20 PUSH0 KECCAK256 SWAP1 PUSH1 0x5 MUL ADD PUSH0 SWAP2 POP SWAP1 POP DUP1 PUSH0 ADD PUSH0 SWAP1 SLOAD SWAP1 PUSH2 0x100 EXP SWAP1 DIV PUSH20 0xFFFFFFFFFFFFFFFFFFFFFFFFFFFFFFFFFFFFFFFF AND SWAP1 DUP1 PUSH1 0x1 ADD DUP1 SLOAD PUSH2 0x165 SWAP1 PUSH2 0xDCF JUMP JUMPDEST DUP1 PUSH1 0x1F ADD PUSH1 0x20 DUP1 SWAP2 DIV MUL PUSH1 0x20 ADD PUSH1 0x40 MLOAD SWAP1 DUP2 ADD PUSH1 0x40 MSTORE DUP1 SWAP3 SWAP2 SWAP1 DUP2 DUP2 MSTORE PUSH1 0x20 ADD DUP3 DUP1 SLOAD PUSH2 0x191 SWAP1 PUSH2 0xDCF JUMP JUMPDEST DUP1 ISZERO PUSH2 0x1DC JUMPI DUP1 PUSH1 0x1F LT PUSH2 0x1B3 JUMPI PUSH2 0x100 DUP1 DUP4 SLOAD DIV MUL DUP4 MSTORE SWAP2 PUSH1 0x20 ADD SWAP2 PUSH2 0x1DC JUMP JUMPDEST DUP3 ADD SWAP2 SWAP1 PUSH0 MSTORE PUSH1 0x20 PUSH0 KECCAK256 SWAP1 JUMPDEST DUP2 SLOAD DUP2 MSTORE SWAP1 PUSH1 0x1 ADD SWAP1 PUSH1 0x20 ADD DUP1 DUP4 GT PUSH2 0x1BF JUMPI DUP3 SWAP1 SUB PUSH1 0x1F AND DUP3 ADD SWAP2 JUMPDEST POP POP POP POP POP SWAP1 DUP1 PUSH1 0x2 ADD DUP1 SLOAD PUSH2 0x1F1 SWAP1 PUSH2 0xDCF JUMP JUMPDEST DUP1 PUSH1 0x1F ADD PUSH1 0x20 DUP1 SWAP2 DIV MUL PUSH1 0x20 ADD PUSH1 0x40 MLOAD SWAP1 DUP2 ADD PUSH1 0x40 MSTORE DUP1 SWAP3 SWAP2 SWAP1 DUP2 DUP2 MSTORE PUSH1 0x20 ADD DUP3 DUP1 SLOAD PUSH2 0x21D SWAP1 PUSH2 0xDCF JUMP JUMPDEST DUP1 ISZERO PUSH2 0x268 JUMPI DUP1 PUSH1 0x1F LT PUSH2 0x23F JUMPI PUSH2 0x100 DUP1 DUP4 SLOAD DIV MUL DUP4 MSTORE SWAP2 PUSH1 0x20 ADD SWAP2 PUSH2 0x268 JUMP JUMPDEST DUP3 ADD SWAP2 SWAP1 PUSH0 MSTORE PUSH1 0x20 PUSH0 KECCAK256 SWAP1 JUMPDEST DUP2 SLOAD DUP2 MSTORE SWAP1 PUSH1 0x1 ADD SWAP1 PUSH1 0x20 ADD DUP1 DUP4 GT PUSH2 0x24B JUMPI DUP3 SWAP1 SUB PUSH1 0x1F AND DUP3 ADD SWAP2 JUMPDEST POP POP POP POP POP SWAP1 DUP1 PUSH1 0x3 ADD SLOAD SWAP1 DUP1 PUSH1 0x4 ADD SLOAD SWAP1 POP DUP6 JUMP JUMPDEST PUSH1 0x60 PUSH0 DUP1 SLOAD DUP1 PUSH1 0x20 MUL PUSH1 0x20 ADD PUSH1 0x40 MLOAD SWAP1 DUP2 ADD PUSH1 0x40 MSTORE DUP1 SWAP3 SWAP2 SWAP1 DUP2 DUP2 MSTORE PUSH1 0x20 ADD PUSH0 SWAP1 JUMPDEST DUP3 DUP3 LT ISZERO PUSH2 0x458 JUMPI DUP4 DUP3 SWAP1 PUSH0 MSTORE PUSH1 0x20 PUSH0 KECCAK256 SWAP1 PUSH1 0x5 MUL ADD PUSH1 0x40 MLOAD DUP1 PUSH1 0xA0 ADD PUSH1 0x40 MSTORE SWAP1 DUP2 PUSH0 DUP3 ADD PUSH0 SWAP1 SLOAD SWAP1 PUSH2 0x100 EXP SWAP1 DIV PUSH20 0xFFFFFFFFFFFFFFFFFFFFFFFFFFFFFFFFFFFFFFFF AND PUSH20 0xFFFFFFFFFFFFFFFFFFFFFFFFFFFFFFFFFFFFFFFF AND PUSH20 0xFFFFFFFFFFFFFFFFFFFFFFFFFFFFFFFFFFFFFFFF AND DUP2 MSTORE PUSH1 0x20 ADD PUSH1 0x1 DUP3 ADD DUP1 SLOAD PUSH2 0x325 SWAP1 PUSH2 0xDCF JUMP JUMPDEST DUP1 PUSH1 0x1F ADD PUSH1 0x20 DUP1 SWAP2 DIV MUL PUSH1 0x20 ADD PUSH1 0x40 MLOAD SWAP1 DUP2 ADD PUSH1 0x40 MSTORE DUP1 SWAP3 SWAP2 SWAP1 DUP2 DUP2 MSTORE PUSH1 0x20 ADD DUP3 DUP1 SLOAD PUSH2 0x351 SWAP1 PUSH2 0xDCF JUMP JUMPDEST DUP1 ISZERO PUSH2 0x39C JUMPI DUP1 PUSH1 0x1F LT PUSH2 0x373 JUMPI PUSH2 0x100 DUP1 DUP4 SLOAD DIV MUL DUP4 MSTORE SWAP2 PUSH1 0x20 ADD SWAP2 PUSH2 0x39C JUMP JUMPDEST DUP3 ADD SWAP2 SWAP1 PUSH0 MSTORE PUSH1 0x20 PUSH0 KECCAK256 SWAP1 JUMPDEST DUP2 SLOAD DUP2 MSTORE SWAP1 PUSH1 0x1 ADD SWAP1 PUSH1 0x20 ADD DUP1 DUP4 GT PUSH2 0x37F JUMPI DUP3 SWAP1 SUB PUSH1 0x1F AND DUP3 ADD SWAP2 JUMPDEST POP POP POP POP POP DUP2 MSTORE PUSH1 0x20 ADD PUSH1 0x2 DUP3 ADD DUP1 SLOAD PUSH2 0x3B5 SWAP1 PUSH2 0xDCF JUMP JUMPDEST DUP1 PUSH1 0x1F ADD PUSH1 0x20 DUP1 SWAP2 DIV MUL PUSH1 0x20 ADD PUSH1 0x40 MLOAD SWAP1 DUP2 ADD PUSH1 0x40 MSTORE DUP1 SWAP3 SWAP2 SWAP1 DUP2 DUP2 MSTORE PUSH1 0x20 ADD DUP3 DUP1 SLOAD PUSH2 0x3E1 SWAP1 PUSH2 0xDCF JUMP JUMPDEST DUP1 ISZERO PUSH2 0x42C JUMPI DUP1 PUSH1 0x1F LT PUSH2 0x403 JUMPI PUSH2 0x100 DUP1 DUP4 SLOAD DIV MUL DUP4 MSTORE SWAP2 PUSH1 0x20 ADD SWAP2 PUSH2 0x42C JUMP JUMPDEST DUP3 ADD SWAP2 SWAP1 PUSH0 MSTORE PUSH1 0x20 PUSH0 KECCAK256 SWAP1 JUMPDEST DUP2 SLOAD DUP2 MSTORE SWAP1 PUSH1 0x1 ADD SWAP1 PUSH1 0x20 ADD DUP1 DUP4 GT PUSH2 0x40F JUMPI DUP3 SWAP1 SUB PUSH1 0x1F AND DUP3 ADD SWAP2 JUMPDEST POP POP POP POP POP DUP2 MSTORE PUSH1 0x20 ADD PUSH1 0x3 DUP3 ADD SLOAD DUP2 MSTORE PUSH1 0x20 ADD PUSH1 0x4 DUP3 ADD SLOAD DUP2 MSTORE POP POP DUP2 MSTORE PUSH1 0x20 ADD SWAP1 PUSH1 0x1 ADD SWAP1 PUSH2 0x2A0 JUMP JUMPDEST POP POP POP POP SWAP1 POP SWAP1 JUMP JUMPDEST PUSH0 DUP3 MLOAD GT PUSH2 0x4A4 JUMPI PUSH1 0x40 MLOAD PUSH32 0x8C379A000000000000000000000000000000000000000000000000000000000 DUP2 MSTORE PUSH1 0x4 ADD PUSH2 0x49B SWAP1 PUSH2 0xE49 JUMP JUMPDEST PUSH1 0x40 MLOAD DUP1 SWAP2 SUB SWAP1 REVERT JUMPDEST PUSH0 DUP2 MLOAD GT PUSH2 0x4E7 JUMPI PUSH1 0x40 MLOAD PUSH32 0x8C379A000000000000000000000000000000000000000000000000000000000 DUP2 MSTORE PUSH1 0x4 ADD PUSH2 0x4DE SWAP1 PUSH2 0xEB1 JUMP JUMPDEST PUSH1 0x40 MLOAD DUP1 SWAP2 SUB SWAP1 REVERT JUMPDEST PUSH0 PUSH1 0x40 MLOAD DUP1 PUSH1 0xA0 ADD PUSH1 0x40 MSTORE DUP1 CALLER PUSH20 0xFFFFFFFFFFFFFFFFFFFFFFFFFFFFFFFFFFFFFFFF AND DUP2 MSTORE PUSH1 0x20 ADD DUP5 DUP2 MSTORE PUSH1 0x20 ADD DUP4 DUP2 MSTORE PUSH1 0x20 ADD TIMESTAMP DUP2 MSTORE PUSH1 0x20 ADD PUSH0 DUP2 MSTORE POP SWAP1 POP PUSH0 DUP1 DUP1 SLOAD SWAP1 POP SWAP1 POP PUSH0 DUP3 SWAP1 DUP1 PUSH1 0x1 DUP2 SLOAD ADD DUP1 DUP3 SSTORE DUP1 SWAP2 POP POP PUSH1 0x1 SWAP1 SUB SWAP1 PUSH0 MSTORE PUSH1 0x20 PUSH0 KECCAK256 SWAP1 PUSH1 0x5 MUL ADD PUSH0 SWAP1 SWAP2 SWAP1 SWAP2 SWAP1 SWAP2 POP PUSH0 DUP3 ADD MLOAD DUP2 PUSH0 ADD PUSH0 PUSH2 0x100 EXP DUP2 SLOAD DUP2 PUSH20 0xFFFFFFFFFFFFFFFFFFFFFFFFFFFFFFFFFFFFFFFF MUL NOT AND SWAP1 DUP4 PUSH20 0xFFFFFFFFFFFFFFFFFFFFFFFFFFFFFFFFFFFFFFFF AND MUL OR SWAP1 SSTORE POP PUSH1 0x20 DUP3 ADD MLOAD DUP2 PUSH1 0x1 ADD SWAP1 DUP2 PUSH2 0x5B0 SWAP2 SWAP1 PUSH2 0x106C JUMP JUMPDEST POP PUSH1 0x40 DUP3 ADD MLOAD DUP2 PUSH1 0x2 ADD SWAP1 DUP2 PUSH2 0x5C6 SWAP2 SWAP1 PUSH2 0x106C JUMP JUMPDEST POP PUSH1 0x60 DUP3 ADD MLOAD DUP2 PUSH1 0x3 ADD SSTORE PUSH1 0x80 DUP3 ADD MLOAD DUP2 PUSH1 0x4 ADD SSTORE POP POP CALLER PUSH20 0xFFFFFFFFFFFFFFFFFFFFFFFFFFFFFFFFFFFFFFFF AND DUP2 PUSH32 0x285DB98A4632176385795DDF0D2B67CEF1A21F47EB2F5D06F786AB6B5147E200 DUP7 TIMESTAMP PUSH1 0x40 MLOAD PUSH2 0x626 SWAP3 SWAP2 SWAP1 PUSH2 0x113B JUMP JUMPDEST PUSH1 0x40 MLOAD DUP1 SWAP2 SUB SWAP1 LOG3 POP POP POP POP JUMP JUMPDEST PUSH0 DUP1 SLOAD SWAP1 POP DUP2 LT PUSH2 0x67A JUMPI PUSH1 0x40 MLOAD PUSH32 0x8C379A000000000000000000000000000000000000000000000000000000000 DUP2 MSTORE PUSH1 0x4 ADD PUSH2 0x671 SWAP1 PUSH2 0x11B3 JUMP JUMPDEST PUSH1 0x40 MLOAD DUP1 SWAP2 SUB SWAP1 REVERT JUMPDEST PUSH1 0x1 PUSH0 DUP3 DUP2 MSTORE PUSH1 0x20 ADD SWAP1 DUP2 MSTORE PUSH1 0x20 ADD PUSH0 KECCAK256 PUSH0 CALLER PUSH20 0xFFFFFFFFFFFFFFFFFFFFFFFFFFFFFFFFFFFFFFFF AND PUSH20 0xFFFFFFFFFFFFFFFFFFFFFFFFFFFFFFFFFFFFFFFF AND DUP2 MSTORE PUSH1 0x20 ADD SWAP1 DUP2 MSTORE PUSH1 0x20 ADD PUSH0 KECCAK256 PUSH0 SWAP1 SLOAD SWAP1 PUSH2 0x100 EXP SWAP1 DIV PUSH1 0xFF AND ISZERO PUSH2 0x713 JUMPI PUSH1 0x40 MLOAD PUSH32 0x8C379A000000000000000000000000000000000000000000000000000000000 DUP2 MSTORE PUSH1 0x4 ADD PUSH2 0x70A SWAP1 PUSH2 0x121B JUMP JUMPDEST PUSH1 0x40 MLOAD DUP1 SWAP2 SUB SWAP1 REVERT JUMPDEST PUSH1 0x1 DUP1 PUSH0 DUP4 DUP2 MSTORE PUSH1 0x20 ADD SWAP1 DUP2 MSTORE PUSH1 0x20 ADD PUSH0 KECCAK256 PUSH0 CALLER PUSH20 0xFFFFFFFFFFFFFFFFFFFFFFFFFFFFFFFFFFFFFFFF AND PUSH20 0xFFFFFFFFFFFFFFFFFFFFFFFFFFFFFFFFFFFFFFFF AND DUP2 MSTORE PUSH1 0x20 ADD SWAP1 DUP2 MSTORE PUSH1 0x20 ADD PUSH0 KECCAK256 PUSH0 PUSH2 0x100 EXP DUP2 SLOAD DUP2 PUSH1 0xFF MUL NOT AND SWAP1 DUP4 ISZERO ISZERO MUL OR SWAP1 SSTORE POP PUSH0 DUP2 DUP2 SLOAD DUP2 LT PUSH2 0x789 JUMPI PUSH2 0x788 PUSH2 0x1239 JUMP JUMPDEST JUMPDEST SWAP1 PUSH0 MSTORE PUSH1 0x20 PUSH0 KECCAK256 SWAP1 PUSH1 0x5 MUL ADD PUSH1 0x4 ADD PUSH0 DUP2 SLOAD DUP1 SWAP3 SWAP2 SWAP1 PUSH2 0x7A8 SWAP1 PUSH2 0x1293 JUMP JUMPDEST SWAP2 SWAP1 POP SSTORE POP CALLER PUSH20 0xFFFFFFFFFFFFFFFFFFFFFFFFFFFFFFFFFFFFFFFF AND DUP2 PUSH32 0xCF765D6F163C9B0D832E2A94F4C8E9BFFD32A2C3CA5FDBB8CC67B5FE1441F413 PUSH1 0x40 MLOAD PUSH1 0x40 MLOAD DUP1 SWAP2 SUB SWAP1 LOG3 POP JUMP JUMPDEST PUSH1 0x1 PUSH1 0x20 MSTORE DUP2 PUSH0 MSTORE PUSH1 0x40 PUSH0 KECCAK256 PUSH1 0x20 MSTORE DUP1 PUSH0 MSTORE PUSH1 0x40 PUSH0 KECCAK256 PUSH0 SWAP2 POP SWAP2 POP SWAP1 SLOAD SWAP1 PUSH2 0x100 EXP SWAP1 DIV PUSH1 0xFF AND DUP2 JUMP JUMPDEST PUSH0 PUSH1 0x40 MLOAD SWAP1 POP SWAP1 JUMP JUMPDEST PUSH0 DUP1 REVERT JUMPDEST PUSH0 DUP1 REVERT JUMPDEST PUSH0 DUP2 SWAP1 POP SWAP2 SWAP1 POP JUMP JUMPDEST PUSH2 0x841 DUP2 PUSH2 0x82F JUMP JUMPDEST DUP2 EQ PUSH2 0x84B JUMPI PUSH0 DUP1 REVERT JUMPDEST POP JUMP JUMPDEST PUSH0 DUP2 CALLDATALOAD SWAP1 POP PUSH2 0x85C DUP2 PUSH2 0x838 JUMP JUMPDEST SWAP3 SWAP2 POP POP JUMP JUMPDEST PUSH0 PUSH1 0x20 DUP3 DUP5 SUB SLT ISZERO PUSH2 0x877 JUMPI PUSH2 0x876 PUSH2 0x827 JUMP JUMPDEST JUMPDEST PUSH0 PUSH2 0x884 DUP5 DUP3 DUP6 ADD PUSH2 0x84E JUMP JUMPDEST SWAP2 POP POP SWAP3 SWAP2 POP POP JUMP JUMPDEST PUSH0 PUSH20 0xFFFFFFFFFFFFFFFFFFFFFFFFFFFFFFFFFFFFFFFF DUP3 AND SWAP1 POP SWAP2 SWAP1 POP JUMP JUMPDEST PUSH0 PUSH2 0x8B6 DUP3 PUSH2 0x88D JUMP JUMPDEST SWAP1 POP SWAP2 SWAP1 POP JUMP JUMPDEST PUSH2 0x8C6 DUP2 PUSH2 0x8AC JUMP JUMPDEST DUP3 MSTORE POP POP JUMP JUMPDEST PUSH0 DUP2 MLOAD SWAP1 POP SWAP2 SWAP1 POP JUMP JUMPDEST PUSH0 DUP3 DUP3 MSTORE PUSH1 0x20 DUP3 ADD SWAP1 POP SWAP3 SWAP2 POP POP JUMP JUMPDEST DUP3 DUP2 DUP4 MCOPY PUSH0 DUP4 DUP4 ADD MSTORE POP POP POP JUMP JUMPDEST PUSH0 PUSH1 0x1F NOT PUSH1 0x1F DUP4 ADD AND SWAP1 POP SWAP2 SWAP1 POP JUMP JUMPDEST PUSH0 PUSH2 0x90E DUP3 PUSH2 0x8CC JUMP JUMPDEST PUSH2 0x918 DUP2 DUP6 PUSH2 0x8D6 JUMP JUMPDEST SWAP4 POP PUSH2 0x928 DUP2 DUP6 PUSH1 0x20 DUP7 ADD PUSH2 0x8E6 JUMP JUMPDEST PUSH2 0x931 DUP2 PUSH2 0x8F4 JUMP JUMPDEST DUP5 ADD SWAP2 POP POP SWAP3 SWAP2 POP POP JUMP JUMPDEST PUSH2 0x945 DUP2 PUSH2 0x82F JUMP JUMPDEST DUP3 MSTORE POP POP JUMP JUMPDEST PUSH0 PUSH1 0xA0 DUP3 ADD SWAP1 POP PUSH2 0x95E PUSH0 DUP4 ADD DUP9 PUSH2 0x8BD JUMP JUMPDEST DUP2 DUP2 SUB PUSH1 0x20 DUP4 ADD MSTORE PUSH2 0x970 DUP2 DUP8 PUSH2 0x904 JUMP JUMPDEST SWAP1 POP DUP2 DUP2 SUB PUSH1 0x40 DUP4 ADD MSTORE PUSH2 0x984 DUP2 DUP7 PUSH2 0x904 JUMP JUMPDEST SWAP1 POP PUSH2 0x993 PUSH1 0x60 DUP4 ADD DUP6 PUSH2 0x93C JUMP JUMPDEST PUSH2 0x9A0 PUSH1 0x80 DUP4 ADD DUP5 PUSH2 0x93C JUMP JUMPDEST SWAP7 SWAP6 POP POP POP POP POP POP JUMP JUMPDEST PUSH0 DUP2 MLOAD SWAP1 POP SWAP2 SWAP1 POP JUMP JUMPDEST PUSH0 DUP3 DUP3 MSTORE PUSH1 0x20 DUP3 ADD SWAP1 POP SWAP3 SWAP2 POP POP JUMP JUMPDEST PUSH0 DUP2 SWAP1 POP PUSH1 0x20 DUP3 ADD SWAP1 POP SWAP2 SWAP1 POP JUMP JUMPDEST PUSH2 0x9DC DUP2 PUSH2 0x8AC JUMP JUMPDEST DUP3 MSTORE POP POP JUMP JUMPDEST PUSH0 DUP3 DUP3 MSTORE PUSH1 0x20 DUP3 ADD SWAP1 POP SWAP3 SWAP2 POP POP JUMP JUMPDEST PUSH0 PUSH2 0x9FC DUP3 PUSH2 0x8CC JUMP JUMPDEST PUSH2 0xA06 DUP2 DUP6 PUSH2 0x9E2 JUMP JUMPDEST SWAP4 POP PUSH2 0xA16 DUP2 DUP6 PUSH1 0x20 DUP7 ADD PUSH2 0x8E6 JUMP JUMPDEST PUSH2 0xA1F DUP2 PUSH2 0x8F4 JUMP JUMPDEST DUP5 ADD SWAP2 POP POP SWAP3 SWAP2 POP POP JUMP JUMPDEST PUSH2 0xA33 DUP2 PUSH2 0x82F JUMP JUMPDEST DUP3 MSTORE POP POP JUMP JUMPDEST PUSH0 PUSH1 0xA0 DUP4 ADD PUSH0 DUP4 ADD MLOAD PUSH2 0xA4E PUSH0 DUP7 ADD DUP3 PUSH2 0x9D3 JUMP JUMPDEST POP PUSH1 0x20 DUP4 ADD MLOAD DUP5 DUP3 SUB PUSH1 0x20 DUP7 ADD MSTORE PUSH2 0xA66 DUP3 DUP3 PUSH2 0x9F2 JUMP JUMPDEST SWAP2 POP POP PUSH1 0x40 DUP4 ADD MLOAD DUP5 DUP3 SUB PUSH1 0x40 DUP7 ADD MSTORE PUSH2 0xA80 DUP3 DUP3 PUSH2 0x9F2 JUMP JUMPDEST SWAP2 POP POP PUSH1 0x60 DUP4 ADD MLOAD PUSH2 0xA95 PUSH1 0x60 DUP7 ADD DUP3 PUSH2 0xA2A JUMP JUMPDEST POP PUSH1 0x80 DUP4 ADD MLOAD PUSH2 0xAA8 PUSH1 0x80 DUP7 ADD DUP3 PUSH2 0xA2A JUMP JUMPDEST POP DUP1 SWAP2 POP POP SWAP3 SWAP2 POP POP JUMP JUMPDEST PUSH0 PUSH2 0xABE DUP4 DUP4 PUSH2 0xA39 JUMP JUMPDEST SWAP1 POP SWAP3 SWAP2 POP POP JUMP JUMPDEST PUSH0 PUSH1 0x20 DUP3 ADD SWAP1 POP SWAP2 SWAP1 POP JUMP JUMPDEST PUSH0 PUSH2 0xADC DUP3 PUSH2 0x9AA JUMP JUMPDEST PUSH2 0xAE6 DUP2 DUP6 PUSH2 0x9B4 JUMP JUMPDEST SWAP4 POP DUP4 PUSH1 0x20 DUP3 MUL DUP6 ADD PUSH2 0xAF8 DUP6 PUSH2 0x9C4 JUMP JUMPDEST DUP1 PUSH0 JUMPDEST DUP6 DUP2 LT ISZERO PUSH2 0xB33 JUMPI DUP5 DUP5 SUB DUP10 MSTORE DUP2 MLOAD PUSH2 0xB14 DUP6 DUP3 PUSH2 0xAB3 JUMP JUMPDEST SWAP5 POP PUSH2 0xB1F DUP4 PUSH2 0xAC6 JUMP JUMPDEST SWAP3 POP PUSH1 0x20 DUP11 ADD SWAP10 POP POP PUSH1 0x1 DUP2 ADD SWAP1 POP PUSH2 0xAFB JUMP JUMPDEST POP DUP3 SWAP8 POP DUP8 SWAP6 POP POP POP POP POP POP SWAP3 SWAP2 POP POP JUMP JUMPDEST PUSH0 PUSH1 0x20 DUP3 ADD SWAP1 POP DUP2 DUP2 SUB PUSH0 DUP4 ADD MSTORE PUSH2 0xB5D DUP2 DUP5 PUSH2 0xAD2 JUMP JUMPDEST SWAP1 POP SWAP3 SWAP2 POP POP JUMP JUMPDEST PUSH0 DUP1 REVERT JUMPDEST PUSH0 DUP1 REVERT JUMPDEST PUSH32 0x4E487B7100000000000000000000000000000000000000000000000000000000 PUSH0 MSTORE PUSH1 0x41 PUSH1 0x4 MSTORE PUSH1 0x24 PUSH0 REVERT JUMPDEST PUSH2 0xBA3 DUP3 PUSH2 0x8F4 JUMP JUMPDEST DUP2 ADD DUP2 DUP2 LT PUSH8 0xFFFFFFFFFFFFFFFF DUP3 GT OR ISZERO PUSH2 0xBC2 JUMPI PUSH2 0xBC1 PUSH2 0xB6D JUMP JUMPDEST JUMPDEST DUP1 PUSH1 0x40 MSTORE POP POP POP JUMP JUMPDEST PUSH0 PUSH2 0xBD4 PUSH2 0x81E JUMP JUMPDEST SWAP1 POP PUSH2 0xBE0 DUP3 DUP3 PUSH2 0xB9A JUMP JUMPDEST SWAP2 SWAP1 POP JUMP JUMPDEST PUSH0 PUSH8 0xFFFFFFFFFFFFFFFF DUP3 GT ISZERO PUSH2 0xBFF JUMPI PUSH2 0xBFE PUSH2 0xB6D JUMP JUMPDEST JUMPDEST PUSH2 0xC08 DUP3 PUSH2 0x8F4 JUMP JUMPDEST SWAP1 POP PUSH1 0x20 DUP2 ADD SWAP1 POP SWAP2 SWAP1 POP JUMP JUMPDEST DUP3 DUP2 DUP4 CALLDATACOPY PUSH0 DUP4 DUP4 ADD MSTORE POP POP POP JUMP JUMPDEST PUSH0 PUSH2 0xC35 PUSH2 0xC30 DUP5 PUSH2 0xBE5 JUMP JUMPDEST PUSH2 0xBCB JUMP JUMPDEST SWAP1 POP DUP3 DUP2 MSTORE PUSH1 0x20 DUP2 ADD DUP5 DUP5 DUP5 ADD GT ISZERO PUSH2 0xC51 JUMPI PUSH2 0xC50 PUSH2 0xB69 JUMP JUMPDEST JUMPDEST PUSH2 0xC5C DUP5 DUP3 DUP6 PUSH2 0xC15 JUMP JUMPDEST POP SWAP4 SWAP3 POP POP POP JUMP JUMPDEST PUSH0 DUP3 PUSH1 0x1F DUP4 ADD SLT PUSH2 0xC78 JUMPI PUSH2 0xC77 PUSH2 0xB65 JUMP JUMPDEST JUMPDEST DUP2 CALLDATALOAD PUSH2 0xC88 DUP5 DUP3 PUSH1 0x20 DUP7 ADD PUSH2 0xC23 JUMP JUMPDEST SWAP2 POP POP SWAP3 SWAP2 POP POP JUMP JUMPDEST PUSH0 DUP1 PUSH1 0x40 DUP4 DUP6 SUB SLT ISZERO PUSH2 0xCA7 JUMPI PUSH2 0xCA6 PUSH2 0x827 JUMP JUMPDEST JUMPDEST PUSH0 DUP4 ADD CALLDATALOAD PUSH8 0xFFFFFFFFFFFFFFFF DUP2 GT ISZERO PUSH2 0xCC4 JUMPI PUSH2 0xCC3 PUSH2 0x82B JUMP JUMPDEST JUMPDEST PUSH2 0xCD0 DUP6 DUP3 DUP7 ADD PUSH2 0xC64 JUMP JUMPDEST SWAP3 POP POP PUSH1 0x20 DUP4 ADD CALLDATALOAD PUSH8 0xFFFFFFFFFFFFFFFF DUP2 GT ISZERO PUSH2 0xCF1 JUMPI PUSH2 0xCF0 PUSH2 0x82B JUMP JUMPDEST JUMPDEST PUSH2 0xCFD DUP6 DUP3 DUP7 ADD PUSH2 0xC64 JUMP JUMPDEST SWAP2 POP POP SWAP3 POP SWAP3 SWAP1 POP JUMP JUMPDEST PUSH2 0xD10 DUP2 PUSH2 0x8AC JUMP JUMPDEST DUP2 EQ PUSH2 0xD1A JUMPI PUSH0 DUP1 REVERT JUMPDEST POP JUMP JUMPDEST PUSH0 DUP2 CALLDATALOAD SWAP1 POP PUSH2 0xD2B DUP2 PUSH2 0xD07 JUMP JUMPDEST SWAP3 SWAP2 POP POP JUMP JUMPDEST PUSH0 DUP1 PUSH1 0x40 DUP4 DUP6 SUB SLT ISZERO PUSH2 0xD47 JUMPI PUSH2 0xD46 PUSH2 0x827 JUMP JUMPDEST JUMPDEST PUSH0 PUSH2 0xD54 DUP6 DUP3 DUP7 ADD PUSH2 0x84E JUMP JUMPDEST SWAP3 POP POP PUSH1 0x20 PUSH2 0xD65 DUP6 DUP3 DUP7 ADD PUSH2 0xD1D JUMP JUMPDEST SWAP2 POP POP SWAP3 POP SWAP3 SWAP1 POP JUMP JUMPDEST PUSH0 DUP2 ISZERO ISZERO SWAP1 POP SWAP2 SWAP1 POP JUMP JUMPDEST PUSH2 0xD83 DUP2 PUSH2 0xD6F JUMP JUMPDEST DUP3 MSTORE POP POP JUMP JUMPDEST PUSH0 PUSH1 0x20 DUP3 ADD SWAP1 POP PUSH2 0xD9C PUSH0 DUP4 ADD DUP5 PUSH2 0xD7A JUMP JUMPDEST SWAP3 SWAP2 POP POP JUMP JUMPDEST PUSH32 0x4E487B7100000000000000000000000000000000000000000000000000000000 PUSH0 MSTORE PUSH1 0x22 PUSH1 0x4 MSTORE PUSH1 0x24 PUSH0 REVERT JUMPDEST PUSH0 PUSH1 0x2 DUP3 DIV SWAP1 POP PUSH1 0x1 DUP3 AND DUP1 PUSH2 0xDE6 JUMPI PUSH1 0x7F DUP3 AND SWAP2 POP JUMPDEST PUSH1 0x20 DUP3 LT DUP2 SUB PUSH2 0xDF9 JUMPI PUSH2 0xDF8 PUSH2 0xDA2 JUMP JUMPDEST JUMPDEST POP SWAP2 SWAP1 POP JUMP JUMPDEST PUSH32 0x5469746C652063616E6E6F7420626520656D7074790000000000000000000000 PUSH0 DUP3 ADD MSTORE POP JUMP JUMPDEST PUSH0 PUSH2 0xE33 PUSH1 0x15 DUP4 PUSH2 0x8D6 JUMP JUMPDEST SWAP2 POP PUSH2 0xE3E DUP3 PUSH2 0xDFF JUMP JUMPDEST PUSH1 0x20 DUP3 ADD SWAP1 POP SWAP2 SWAP1 POP JUMP JUMPDEST PUSH0 PUSH1 0x20 DUP3 ADD SWAP1 POP DUP2 DUP2 SUB PUSH0 DUP4 ADD MSTORE PUSH2 0xE60 DUP2 PUSH2 0xE27 JUMP JUMPDEST SWAP1 POP SWAP2 SWAP1 POP JUMP JUMPDEST PUSH32 0x436F6E74656E742063616E6E6F7420626520656D707479000000000000000000 PUSH0 DUP3 ADD MSTORE POP JUMP JUMPDEST PUSH0 PUSH2 0xE9B PUSH1 0x17 DUP4 PUSH2 0x8D6 JUMP JUMPDEST SWAP2 POP PUSH2 0xEA6 DUP3 PUSH2 0xE67 JUMP JUMPDEST PUSH1 0x20 DUP3 ADD SWAP1 POP SWAP2 SWAP1 POP JUMP JUMPDEST PUSH0 PUSH1 0x20 DUP3 ADD SWAP1 POP DUP2 DUP2 SUB PUSH0 DUP4 ADD MSTORE PUSH2 0xEC8 DUP2 PUSH2 0xE8F JUMP JUMPDEST SWAP1 POP SWAP2 SWAP1 POP JUMP JUMPDEST PUSH0 DUP2 SWAP1 POP DUP2 PUSH0 MSTORE PUSH1 0x20 PUSH0 KECCAK256 SWAP1 POP SWAP2 SWAP1 POP JUMP JUMPDEST PUSH0 PUSH1 0x20 PUSH1 0x1F DUP4 ADD DIV SWAP1 POP SWAP2 SWAP1 POP JUMP JUMPDEST PUSH0 DUP3 DUP3 SHL SWAP1 POP SWAP3 SWAP2 POP POP JUMP JUMPDEST PUSH0 PUSH1 0x8 DUP4 MUL PUSH2 0xF2B PUSH32 0xFFFFFFFFFFFFFFFFFFFFFFFFFFFFFFFFFFFFFFFFFFFFFFFFFFFFFFFFFFFFFFFF DUP3 PUSH2 0xEF0 JUMP JUMPDEST PUSH2 0xF35 DUP7 DUP4 PUSH2 0xEF0 JUMP JUMPDEST SWAP6 POP DUP1 NOT DUP5 AND SWAP4 POP DUP1 DUP7 AND DUP5 OR SWAP3 POP POP POP SWAP4 SWAP3 POP POP POP JUMP JUMPDEST PUSH0 DUP2 SWAP1 POP SWAP2 SWAP1 POP JUMP JUMPDEST PUSH0 PUSH2 0xF70 PUSH2 0xF6B PUSH2 0xF66 DUP5 PUSH2 0x82F JUMP JUMPDEST PUSH2 0xF4D JUMP JUMPDEST PUSH2 0x82F JUMP JUMPDEST SWAP1 POP SWAP2 SWAP1 POP JUMP JUMPDEST PUSH0 DUP2 SWAP1 POP SWAP2 SWAP1 POP JUMP JUMPDEST PUSH2 0xF89 DUP4 PUSH2 0xF56 JUMP JUMPDEST PUSH2 0xF9D PUSH2 0xF95 DUP3 PUSH2 0xF77 JUMP JUMPDEST DUP5 DUP5 SLOAD PUSH2 0xEFC JUMP JUMPDEST DUP3 SSTORE POP POP POP POP JUMP JUMPDEST PUSH0 SWAP1 JUMP JUMPDEST PUSH2 0xFB1 PUSH2 0xFA5 JUMP JUMPDEST PUSH2 0xFBC DUP2 DUP5 DUP5 PUSH2 0xF80 JUMP JUMPDEST POP POP POP JUMP JUMPDEST JUMPDEST DUP2 DUP2 LT ISZERO PUSH2 0xFDF JUMPI PUSH2 0xFD4 PUSH0 DUP3 PUSH2 0xFA9 JUMP JUMPDEST PUSH1 0x1 DUP2 ADD SWAP1 POP PUSH2 0xFC2 JUMP JUMPDEST POP POP JUMP JUMPDEST PUSH1 0x1F DUP3 GT ISZERO PUSH2 0x1024 JUMPI PUSH2 0xFF5 DUP2 PUSH2 0xECF JUMP JUMPDEST PUSH2 0xFFE DUP5 PUSH2 0xEE1 JUMP JUMPDEST DUP2 ADD PUSH1 0x20 DUP6 LT ISZERO PUSH2 0x100D JUMPI DUP2 SWAP1 POP JUMPDEST PUSH2 0x1021 PUSH2 0x1019 DUP6 PUSH2 0xEE1 JUMP JUMPDEST DUP4 ADD DUP3 PUSH2 0xFC1 JUMP JUMPDEST POP POP JUMPDEST POP POP POP JUMP JUMPDEST PUSH0 DUP3 DUP3 SHR SWAP1 POP SWAP3 SWAP2 POP POP JUMP JUMPDEST PUSH0 PUSH2 0x1044 PUSH0 NOT DUP5 PUSH1 0x8 MUL PUSH2 0x1029 JUMP JUMPDEST NOT DUP1 DUP4 AND SWAP2 POP POP SWAP3 SWAP2 POP POP JUMP JUMPDEST PUSH0 PUSH2 0x105C DUP4 DUP4 PUSH2 0x1035 JUMP JUMPDEST SWAP2 POP DUP3 PUSH1 0x2 MUL DUP3 OR SWAP1 POP SWAP3 SWAP2 POP POP JUMP JUMPDEST PUSH2 0x1075 DUP3 PUSH2 0x8CC JUMP JUMPDEST PUSH8 0xFFFFFFFFFFFFFFFF DUP2 GT ISZERO PUSH2 0x108E JUMPI PUSH2 0x108D PUSH2 0xB6D JUMP JUMPDEST JUMPDEST PUSH2 0x1098 DUP3 SLOAD PUSH2 0xDCF JUMP JUMPDEST PUSH2 0x10A3 DUP3 DUP3 DUP6 PUSH2 0xFE3 JUMP JUMPDEST PUSH0 PUSH1 0x20 SWAP1 POP PUSH1 0x1F DUP4 GT PUSH1 0x1 DUP2 EQ PUSH2 0x10D4 JUMPI PUSH0 DUP5 ISZERO PUSH2 0x10C2 JUMPI DUP3 DUP8 ADD MLOAD SWAP1 POP JUMPDEST PUSH2 0x10CC DUP6 DUP3 PUSH2 0x1051 JUMP JUMPDEST DUP7 SSTORE POP PUSH2 0x1133 JUMP JUMPDEST PUSH1 0x1F NOT DUP5 AND PUSH2 0x10E2 DUP7 PUSH2 0xECF JUMP JUMPDEST PUSH0 JUMPDEST DUP3 DUP2 LT ISZERO PUSH2 0x1109 JUMPI DUP5 DUP10 ADD MLOAD DUP3 SSTORE PUSH1 0x1 DUP3 ADD SWAP2 POP PUSH1 0x20 DUP6 ADD SWAP5 POP PUSH1 0x20 DUP2 ADD SWAP1 POP PUSH2 0x10E4 JUMP JUMPDEST DUP7 DUP4 LT ISZERO PUSH2 0x1126 JUMPI DUP5 DUP10 ADD MLOAD PUSH2 0x1122 PUSH1 0x1F DUP10 AND DUP3 PUSH2 0x1035 JUMP JUMPDEST DUP4 SSTORE POP JUMPDEST PUSH1 0x1 PUSH1 0x2 DUP9 MUL ADD DUP9 SSTORE POP POP POP JUMPDEST POP POP POP POP POP POP JUMP JUMPDEST PUSH0 PUSH1 0x40 DUP3 ADD SWAP1 POP DUP2 DUP2 SUB PUSH0 DUP4 ADD MSTORE PUSH2 0x1153 DUP2 DUP6 PUSH2 0x904 JUMP JUMPDEST SWAP1 POP PUSH2 0x1162 PUSH1 0x20 DUP4 ADD DUP5 PUSH2 0x93C JUMP JUMPDEST SWAP4 SWAP3 POP POP POP JUMP JUMPDEST PUSH32 0x496E76616C696420706F73742049440000000000000000000000000000000000 PUSH0 DUP3 ADD MSTORE POP JUMP JUMPDEST PUSH0 PUSH2 0x119D PUSH1 0xF DUP4 PUSH2 0x8D6 JUMP JUMPDEST SWAP2 POP PUSH2 0x11A8 DUP3 PUSH2 0x1169 JUMP JUMPDEST PUSH1 0x20 DUP3 ADD SWAP1 POP SWAP2 SWAP1 POP JUMP JUMPDEST PUSH0 PUSH1 0x20 DUP3 ADD SWAP1 POP DUP2 DUP2 SUB PUSH0 DUP4 ADD MSTORE PUSH2 0x11CA DUP2 PUSH2 0x1191 JUMP JUMPDEST SWAP1 POP SWAP2 SWAP1 POP JUMP JUMPDEST PUSH32 0x596F75206861766520616C7265616479206C696B6564207468697320706F7374 PUSH0 DUP3 ADD MSTORE POP JUMP JUMPDEST PUSH0 PUSH2 0x1205 PUSH1 0x20 DUP4 PUSH2 0x8D6 JUMP JUMPDEST SWAP2 POP PUSH2 0x1210 DUP3 PUSH2 0x11D1 JUMP JUMPDEST PUSH1 0x20 DUP3 ADD SWAP1 POP SWAP2 SWAP1 POP JUMP JUMPDEST PUSH0 PUSH1 0x20 DUP3 ADD SWAP1 POP DUP2 DUP2 SUB PUSH0 DUP4 ADD MSTORE PUSH2 0x1232 DUP2 PUSH2 0x11F9 JUMP JUMPDEST SWAP1 POP SWAP2 SWAP1 POP JUMP JUMPDEST PUSH32 0x4E487B7100000000000000000000000000000000000000000000000000000000 PUSH0 MSTORE PUSH1 0x32 PUSH1 0x4 MSTORE PUSH1 0x24 PUSH0 REVERT JUMPDEST PUSH32 0x4E487B7100000000000000000000000000000000000000000000000000000000 PUSH0 MSTORE PUSH1 0x11 PUSH1 0x4 MSTORE PUSH1 0x24 PUSH0 REVERT JUMPDEST PUSH0 PUSH2 0x129D DUP3 PUSH2 0x82F JUMP JUMPDEST SWAP2 POP PUSH32 0xFFFFFFFFFFFFFFFFFFFFFFFFFFFFFFFFFFFFFFFFFFFFFFFFFFFFFFFFFFFFFFFF DUP3 SUB PUSH2 0x12CF JUMPI PUSH2 0x12CE PUSH2 0x1266 JUMP JUMPDEST JUMPDEST PUSH1 0x1 DUP3 ADD SWAP1 POP SWAP2 SWAP1 POP JUMP INVALID LOG2 PUSH5 0x6970667358 0x22 SLT KECCAK256 SWAP4 0x24 0xFC 0x4D DUP3 PUSH2 0xD2A1 BLOCKHASH BLOBHASH PUSH20 0x5BF34F5DAAF8C2006C1F1AD367726A1B8ED12ABE 0xB7 PUSH5 0x736F6C6343 STOP ADDMOD BYTE STOP CALLER "
				},
				"gasEstimates": {
					"creation": {
						"codeDepositCost": "976000",
						"executionCost": "1012",
						"totalCost": "977012"
					},
					"external": {
						"createPost(string,string)": "infinite",
						"getAllPosts()": "infinite",
						"likePost(uint256)": "infinite",
						"postLikes(uint256,address)": "3137",
						"posts(uint256)": "infinite"
					}
				},
				"methodIdentifiers": {
					"createPost(string,string)": "392338f5",
					"getAllPosts()": "30561100",
					"likePost(uint256)": "725009d3",
					"postLikes(uint256,address)": "ca1f0cad",
					"posts(uint256)": "0b1e7f83"
				}
			},
			"storageLayout": {
				"storage": [
					{
						"astId": 16,
						"contract": "project-02/contracts/contract.sol:DecentralizedBlog",
						"label": "posts",
						"offset": 0,
						"slot": "0",
						"type": "t_array(t_struct(Post)12_storage)dyn_storage"
					},
					{
						"astId": 22,
						"contract": "project-02/contracts/contract.sol:DecentralizedBlog",
						"label": "postLikes",
						"offset": 0,
						"slot": "1",
						"type": "t_mapping(t_uint256,t_mapping(t_address,t_bool))"
					}
				],
				"types": {
					"t_address": {
						"encoding": "inplace",
						"label": "address",
						"numberOfBytes": "20"
					},
					"t_array(t_struct(Post)12_storage)dyn_storage": {
						"base": "t_struct(Post)12_storage",
						"encoding": "dynamic_array",
						"label": "struct DecentralizedBlog.Post[]",
						"numberOfBytes": "32"
					},
					"t_bool": {
						"encoding": "inplace",
						"label": "bool",
						"numberOfBytes": "1"
					},
					"t_mapping(t_address,t_bool)": {
						"encoding": "mapping",
						"key": "t_address",
						"label": "mapping(address => bool)",
						"numberOfBytes": "32",
						"value": "t_bool"
					},
					"t_mapping(t_uint256,t_mapping(t_address,t_bool))": {
						"encoding": "mapping",
						"key": "t_uint256",
						"label": "mapping(uint256 => mapping(address => bool))",
						"numberOfBytes": "32",
						"value": "t_mapping(t_address,t_bool)"
					},
					"t_string_storage": {
						"encoding": "bytes",
						"label": "string",
						"numberOfBytes": "32"
					},
					"t_struct(Post)12_storage": {
						"encoding": "inplace",
						"label": "struct DecentralizedBlog.Post",
						"members": [
							{
								"astId": 3,
								"contract": "project-02/contracts/contract.sol:DecentralizedBlog",
								"label": "author",
								"offset": 0,
								"slot": "0",
								"type": "t_address"
							},
							{
								"astId": 5,
								"contract": "project-02/contracts/contract.sol:DecentralizedBlog",
								"label": "title",
								"offset": 0,
								"slot": "1",
								"type": "t_string_storage"
							},
							{
								"astId": 7,
								"contract": "project-02/contracts/contract.sol:DecentralizedBlog",
								"label": "content",
								"offset": 0,
								"slot": "2",
								"type": "t_string_storage"
							},
							{
								"astId": 9,
								"contract": "project-02/contracts/contract.sol:DecentralizedBlog",
								"label": "timestamp",
								"offset": 0,
								"slot": "3",
								"type": "t_uint256"
							},
							{
								"astId": 11,
								"contract": "project-02/contracts/contract.sol:DecentralizedBlog",
								"label": "likes",
								"offset": 0,
								"slot": "4",
								"type": "t_uint256"
							}
						],
						"numberOfBytes": "160"
					},
					"t_uint256": {
						"encoding": "inplace",
						"label": "uint256",
						"numberOfBytes": "32"
					}
				}
			},
			"userdoc": {
				"kind": "user",
				"methods": {},
				"version": 1
			}
		}
	}
}